{
  "_format": "hh-sol-artifact-1",
  "contractName": "Ape",
  "sourceName": "contracts/Ape.sol",
  "abi": [
    {
      "inputs": [],
      "stateMutability": "nonpayable",
      "type": "constructor"
    },
    {
      "anonymous": false,
      "inputs": [
        {
          "indexed": true,
          "internalType": "address",
          "name": "owner",
          "type": "address"
        },
        {
          "indexed": true,
          "internalType": "address",
          "name": "approved",
          "type": "address"
        },
        {
          "indexed": true,
          "internalType": "uint256",
          "name": "tokenId",
          "type": "uint256"
        }
      ],
      "name": "Approval",
      "type": "event"
    },
    {
      "anonymous": false,
      "inputs": [
        {
          "indexed": true,
          "internalType": "address",
          "name": "owner",
          "type": "address"
        },
        {
          "indexed": true,
          "internalType": "address",
          "name": "operator",
          "type": "address"
        },
        {
          "indexed": false,
          "internalType": "bool",
          "name": "approved",
          "type": "bool"
        }
      ],
      "name": "ApprovalForAll",
      "type": "event"
    },
    {
      "anonymous": false,
      "inputs": [
        {
          "indexed": true,
          "internalType": "address",
          "name": "previousOwner",
          "type": "address"
        },
        {
          "indexed": true,
          "internalType": "address",
          "name": "newOwner",
          "type": "address"
        }
      ],
      "name": "OwnershipTransferred",
      "type": "event"
    },
    {
      "anonymous": false,
      "inputs": [
        {
          "indexed": false,
          "internalType": "address",
          "name": "account",
          "type": "address"
        }
      ],
      "name": "Paused",
      "type": "event"
    },
    {
      "anonymous": false,
      "inputs": [
        {
          "indexed": true,
          "internalType": "bytes32",
          "name": "role",
          "type": "bytes32"
        },
        {
          "indexed": true,
          "internalType": "bytes32",
          "name": "previousAdminRole",
          "type": "bytes32"
        },
        {
          "indexed": true,
          "internalType": "bytes32",
          "name": "newAdminRole",
          "type": "bytes32"
        }
      ],
      "name": "RoleAdminChanged",
      "type": "event"
    },
    {
      "anonymous": false,
      "inputs": [
        {
          "indexed": true,
          "internalType": "bytes32",
          "name": "role",
          "type": "bytes32"
        },
        {
          "indexed": true,
          "internalType": "address",
          "name": "account",
          "type": "address"
        },
        {
          "indexed": true,
          "internalType": "address",
          "name": "sender",
          "type": "address"
        }
      ],
      "name": "RoleGranted",
      "type": "event"
    },
    {
      "anonymous": false,
      "inputs": [
        {
          "indexed": true,
          "internalType": "bytes32",
          "name": "role",
          "type": "bytes32"
        },
        {
          "indexed": true,
          "internalType": "address",
          "name": "account",
          "type": "address"
        },
        {
          "indexed": true,
          "internalType": "address",
          "name": "sender",
          "type": "address"
        }
      ],
      "name": "RoleRevoked",
      "type": "event"
    },
    {
      "anonymous": false,
      "inputs": [
        {
          "indexed": true,
          "internalType": "address",
          "name": "from",
          "type": "address"
        },
        {
          "indexed": true,
          "internalType": "address",
          "name": "to",
          "type": "address"
        },
        {
          "indexed": true,
          "internalType": "uint256",
          "name": "tokenId",
          "type": "uint256"
        }
      ],
      "name": "Transfer",
      "type": "event"
    },
    {
      "anonymous": false,
      "inputs": [
        {
          "indexed": false,
          "internalType": "address",
          "name": "account",
          "type": "address"
        }
      ],
      "name": "Unpaused",
      "type": "event"
    },
    {
      "inputs": [],
      "name": "ADMIN_ROLE",
      "outputs": [
        {
          "internalType": "bytes32",
          "name": "",
          "type": "bytes32"
        }
      ],
      "stateMutability": "view",
      "type": "function"
    },
    {
      "inputs": [],
      "name": "DEFAULT_ADMIN_ROLE",
      "outputs": [
        {
          "internalType": "bytes32",
          "name": "",
          "type": "bytes32"
        }
      ],
      "stateMutability": "view",
      "type": "function"
    },
    {
      "inputs": [],
      "name": "MINTER_ROLE",
      "outputs": [
        {
          "internalType": "bytes32",
          "name": "",
          "type": "bytes32"
        }
      ],
      "stateMutability": "view",
      "type": "function"
    },
    {
      "inputs": [],
      "name": "PAUSER_ROLE",
      "outputs": [
        {
          "internalType": "bytes32",
          "name": "",
          "type": "bytes32"
        }
      ],
      "stateMutability": "view",
      "type": "function"
    },
    {
      "inputs": [
        {
          "internalType": "address",
          "name": "to",
          "type": "address"
        },
        {
          "internalType": "uint256",
          "name": "tokenId",
          "type": "uint256"
        }
      ],
      "name": "approve",
      "outputs": [],
      "stateMutability": "nonpayable",
      "type": "function"
    },
    {
      "inputs": [
        {
          "internalType": "address",
          "name": "owner",
          "type": "address"
        }
      ],
      "name": "balanceOf",
      "outputs": [
        {
          "internalType": "uint256",
          "name": "",
          "type": "uint256"
        }
      ],
      "stateMutability": "view",
      "type": "function"
    },
    {
      "inputs": [
        {
          "internalType": "uint256",
          "name": "tokenId",
          "type": "uint256"
        }
      ],
      "name": "burn",
      "outputs": [],
      "stateMutability": "nonpayable",
      "type": "function"
    },
    {
      "inputs": [],
      "name": "contractOwner",
      "outputs": [
        {
          "internalType": "address",
          "name": "",
          "type": "address"
        }
      ],
      "stateMutability": "view",
      "type": "function"
    },
    {
      "inputs": [
        {
          "internalType": "uint256",
          "name": "tokenId",
          "type": "uint256"
        }
      ],
      "name": "getApproved",
      "outputs": [
        {
          "internalType": "address",
          "name": "",
          "type": "address"
        }
      ],
      "stateMutability": "view",
      "type": "function"
    },
    {
      "inputs": [
        {
          "internalType": "bytes32",
          "name": "role",
          "type": "bytes32"
        }
      ],
      "name": "getRoleAdmin",
      "outputs": [
        {
          "internalType": "bytes32",
          "name": "",
          "type": "bytes32"
        }
      ],
      "stateMutability": "view",
      "type": "function"
    },
    {
      "inputs": [],
      "name": "getTokenCount",
      "outputs": [
        {
          "internalType": "uint256",
          "name": "",
          "type": "uint256"
        }
      ],
      "stateMutability": "view",
      "type": "function"
    },
    {
      "inputs": [
        {
          "internalType": "bytes32",
          "name": "role",
          "type": "bytes32"
        },
        {
          "internalType": "address",
          "name": "account",
          "type": "address"
        }
      ],
      "name": "grantRole",
      "outputs": [],
      "stateMutability": "nonpayable",
      "type": "function"
    },
    {
      "inputs": [
        {
          "internalType": "bytes32",
          "name": "role",
          "type": "bytes32"
        },
        {
          "internalType": "address",
          "name": "account",
          "type": "address"
        }
      ],
      "name": "hasRole",
      "outputs": [
        {
          "internalType": "bool",
          "name": "",
          "type": "bool"
        }
      ],
      "stateMutability": "view",
      "type": "function"
    },
    {
      "inputs": [
        {
          "internalType": "address",
          "name": "owner",
          "type": "address"
        },
        {
          "internalType": "address",
          "name": "operator",
          "type": "address"
        }
      ],
      "name": "isApprovedForAll",
      "outputs": [
        {
          "internalType": "bool",
          "name": "",
          "type": "bool"
        }
      ],
      "stateMutability": "view",
      "type": "function"
    },
    {
      "inputs": [
        {
          "internalType": "string",
          "name": "uri",
          "type": "string"
        }
      ],
      "name": "isContentOwned",
      "outputs": [
        {
          "internalType": "bool",
          "name": "",
          "type": "bool"
        }
      ],
      "stateMutability": "view",
      "type": "function"
    },
    {
      "inputs": [],
      "name": "name",
      "outputs": [
        {
          "internalType": "string",
          "name": "",
          "type": "string"
        }
      ],
      "stateMutability": "view",
      "type": "function"
    },
    {
      "inputs": [],
      "name": "owner",
      "outputs": [
        {
          "internalType": "address",
          "name": "",
          "type": "address"
        }
      ],
      "stateMutability": "view",
      "type": "function"
    },
    {
      "inputs": [
        {
          "internalType": "uint256",
          "name": "tokenId",
          "type": "uint256"
        }
      ],
      "name": "ownerOf",
      "outputs": [
        {
          "internalType": "address",
          "name": "",
          "type": "address"
        }
      ],
      "stateMutability": "view",
      "type": "function"
    },
    {
      "inputs": [],
      "name": "pause",
      "outputs": [],
      "stateMutability": "nonpayable",
      "type": "function"
    },
    {
      "inputs": [],
      "name": "paused",
      "outputs": [
        {
          "internalType": "bool",
          "name": "",
          "type": "bool"
        }
      ],
      "stateMutability": "view",
      "type": "function"
    },
    {
      "inputs": [
        {
          "internalType": "address",
          "name": "recipient",
          "type": "address"
        },
        {
          "internalType": "string",
          "name": "metadataURI",
          "type": "string"
        }
      ],
      "name": "payToMint",
      "outputs": [
        {
          "internalType": "uint256",
          "name": "",
          "type": "uint256"
        }
      ],
      "stateMutability": "payable",
      "type": "function"
    },
    {
      "inputs": [],
      "name": "renounceOwnership",
      "outputs": [],
      "stateMutability": "nonpayable",
      "type": "function"
    },
    {
      "inputs": [
        {
          "internalType": "bytes32",
          "name": "role",
          "type": "bytes32"
        },
        {
          "internalType": "address",
          "name": "account",
          "type": "address"
        }
      ],
      "name": "renounceRole",
      "outputs": [],
      "stateMutability": "nonpayable",
      "type": "function"
    },
    {
      "inputs": [
        {
          "internalType": "bytes32",
          "name": "role",
          "type": "bytes32"
        },
        {
          "internalType": "address",
          "name": "account",
          "type": "address"
        }
      ],
      "name": "revokeRole",
      "outputs": [],
      "stateMutability": "nonpayable",
      "type": "function"
    },
    {
      "inputs": [
        {
          "internalType": "address",
          "name": "to",
          "type": "address"
        },
        {
          "internalType": "string",
          "name": "uri",
          "type": "string"
        }
      ],
      "name": "safeMint",
      "outputs": [],
      "stateMutability": "payable",
      "type": "function"
    },
    {
      "inputs": [
        {
          "internalType": "address",
          "name": "from",
          "type": "address"
        },
        {
          "internalType": "address",
          "name": "to",
          "type": "address"
        },
        {
          "internalType": "uint256",
          "name": "tokenId",
          "type": "uint256"
        }
      ],
      "name": "safeTransferFrom",
      "outputs": [],
      "stateMutability": "nonpayable",
      "type": "function"
    },
    {
      "inputs": [
        {
          "internalType": "address",
          "name": "from",
          "type": "address"
        },
        {
          "internalType": "address",
          "name": "to",
          "type": "address"
        },
        {
          "internalType": "uint256",
          "name": "tokenId",
          "type": "uint256"
        },
        {
          "internalType": "bytes",
          "name": "_data",
          "type": "bytes"
        }
      ],
      "name": "safeTransferFrom",
      "outputs": [],
      "stateMutability": "nonpayable",
      "type": "function"
    },
    {
      "inputs": [
        {
          "internalType": "address",
          "name": "operator",
          "type": "address"
        },
        {
          "internalType": "bool",
          "name": "approved",
          "type": "bool"
        }
      ],
      "name": "setApprovalForAll",
      "outputs": [],
      "stateMutability": "nonpayable",
      "type": "function"
    },
    {
      "inputs": [
        {
          "internalType": "bytes4",
          "name": "interfaceId",
          "type": "bytes4"
        }
      ],
      "name": "supportsInterface",
      "outputs": [
        {
          "internalType": "bool",
          "name": "",
          "type": "bool"
        }
      ],
      "stateMutability": "view",
      "type": "function"
    },
    {
      "inputs": [],
      "name": "symbol",
      "outputs": [
        {
          "internalType": "string",
          "name": "",
          "type": "string"
        }
      ],
      "stateMutability": "view",
      "type": "function"
    },
    {
      "inputs": [
        {
          "internalType": "uint256",
          "name": "tokenId",
          "type": "uint256"
        }
      ],
      "name": "tokenURI",
      "outputs": [
        {
          "internalType": "string",
          "name": "",
          "type": "string"
        }
      ],
      "stateMutability": "view",
      "type": "function"
    },
    {
      "inputs": [
        {
          "internalType": "address",
          "name": "from",
          "type": "address"
        },
        {
          "internalType": "address",
          "name": "to",
          "type": "address"
        },
        {
          "internalType": "uint256",
          "name": "tokenId",
          "type": "uint256"
        }
      ],
      "name": "transferFrom",
      "outputs": [],
      "stateMutability": "nonpayable",
      "type": "function"
    },
    {
      "inputs": [
        {
          "internalType": "address",
          "name": "newOwner",
          "type": "address"
        }
      ],
      "name": "transferOwnership",
      "outputs": [],
      "stateMutability": "nonpayable",
      "type": "function"
    },
    {
      "inputs": [],
      "name": "unpause",
      "outputs": [],
      "stateMutability": "nonpayable",
      "type": "function"
    }
  ],
  "bytecode": "0x60806040523480156200001157600080fd5b506040518060400160405280600381526020017f41706500000000000000000000000000000000000000000000000000000000008152506040518060400160405280600381526020017f4150450000000000000000000000000000000000000000000000000000000000815250816000908051906020019062000096929190620003f5565b508060019080519060200190620000af929190620003f5565b505050620000d2620000c6620001ca60201b60201c565b620001d260201b60201c565b6000600960006101000a81548160ff0219169083151502179055506200011f7f65d7a28e3265b37a6474929f336521b332c1681b933f6cb9f3376673440d862a336200029860201b60201c565b620001517fa49807205ce4d355092ef5a8a18f56e8913cf4a201fbe287825b095693c21775336200029860201b60201c565b620001837f9f2df0fed2c77648de5860a4cc508cd0818c85b8b8a1ab4ceeef8d981c8956a6336200029860201b60201c565b33600b60006101000a81548173ffffffffffffffffffffffffffffffffffffffff021916908373ffffffffffffffffffffffffffffffffffffffff1602179055506200050a565b600033905090565b6000600760009054906101000a900473ffffffffffffffffffffffffffffffffffffffff16905081600760006101000a81548173ffffffffffffffffffffffffffffffffffffffff021916908373ffffffffffffffffffffffffffffffffffffffff1602179055508173ffffffffffffffffffffffffffffffffffffffff168173ffffffffffffffffffffffffffffffffffffffff167f8be0079c531659141344cd1fd0a4f28419497f9722a3daafe3b4186f6b6457e060405160405180910390a35050565b620002aa82826200038a60201b60201c565b620003865760016008600084815260200190815260200160002060000160008373ffffffffffffffffffffffffffffffffffffffff1673ffffffffffffffffffffffffffffffffffffffff16815260200190815260200160002060006101000a81548160ff0219169083151502179055506200032b620001ca60201b60201c565b73ffffffffffffffffffffffffffffffffffffffff168173ffffffffffffffffffffffffffffffffffffffff16837f2f8788117e7eff1d82e926ec794901d17c78024a50270940304540a733656f0d60405160405180910390a45b5050565b60006008600084815260200190815260200160002060000160008373ffffffffffffffffffffffffffffffffffffffff1673ffffffffffffffffffffffffffffffffffffffff16815260200190815260200160002060009054906101000a900460ff16905092915050565b8280546200040390620004d4565b90600052602060002090601f01602090048101928262000427576000855562000473565b82601f106200044257805160ff191683800117855562000473565b8280016001018555821562000473579182015b828111156200047257825182559160200191906001019062000455565b5b50905062000482919062000486565b5090565b5b80821115620004a157600081600090555060010162000487565b5090565b7f4e487b7100000000000000000000000000000000000000000000000000000000600052602260045260246000fd5b60006002820490506001821680620004ed57607f821691505b60208210811415620005045762000503620004a5565b5b50919050565b614970806200051a6000396000f3fe6080604052600436106101f95760003560e01c806378a895671161010d578063b88d4fde116100a0578063d53913931161006f578063d539139314610717578063d547741f14610742578063e63ab1e91461076b578063e985e9c514610796578063f2fde38b146107d3576101f9565b8063b88d4fde1461066a578063c87b56dd14610693578063ce606ee0146106d0578063d204c45e146106fb576101f9565b806395d89b41116100dc57806395d89b41146105ae5780639f1cabc6146105d9578063a217fddf14610616578063a22cb46514610641576101f9565b806378a89567146105045780638456cb591461052f5780638da5cb5b1461054657806391d1485414610571576101f9565b80633f4ba83a11610190578063615fd9e21161015f578063615fd9e2146104185780636352211e1461044857806370a0823114610485578063715018a6146104c257806375b238fc146104d9576101f9565b80633f4ba83a1461038457806342842e0e1461039b57806342966c68146103c45780635c975abb146103ed576101f9565b806323b872dd116101cc57806323b872dd146102cc578063248a9ca3146102f55780632f2ff15d1461033257806336568abe1461035b576101f9565b806301ffc9a7146101fe57806306fdde031461023b578063081812fc14610266578063095ea7b3146102a3575b600080fd5b34801561020a57600080fd5b5061022560048036038101906102209190612f39565b6107fc565b6040516102329190612f81565b60405180910390f35b34801561024757600080fd5b5061025061080e565b60405161025d9190613035565b60405180910390f35b34801561027257600080fd5b5061028d6004803603810190610288919061308d565b6108a0565b60405161029a91906130fb565b60405180910390f35b3480156102af57600080fd5b506102ca60048036038101906102c59190613142565b610925565b005b3480156102d857600080fd5b506102f360048036038101906102ee9190613182565b610a3d565b005b34801561030157600080fd5b5061031c6004803603810190610317919061320b565b610a9d565b6040516103299190613247565b60405180910390f35b34801561033e57600080fd5b5061035960048036038101906103549190613262565b610abd565b005b34801561036757600080fd5b50610382600480360381019061037d9190613262565b610ae6565b005b34801561039057600080fd5b50610399610b69565b005b3480156103a757600080fd5b506103c260048036038101906103bd9190613182565b610ba6565b005b3480156103d057600080fd5b506103eb60048036038101906103e6919061308d565b610bc6565b005b3480156103f957600080fd5b50610402610c22565b60405161040f9190612f81565b60405180910390f35b610432600480360381019061042d91906133d7565b610c39565b60405161043f9190613442565b60405180910390f35b34801561045457600080fd5b5061046f600480360381019061046a919061308d565b610d65565b60405161047c91906130fb565b60405180910390f35b34801561049157600080fd5b506104ac60048036038101906104a7919061345d565b610e17565b6040516104b99190613442565b60405180910390f35b3480156104ce57600080fd5b506104d7610ecf565b005b3480156104e557600080fd5b506104ee610f57565b6040516104fb9190613247565b60405180910390f35b34801561051057600080fd5b50610519610f7b565b6040516105269190613442565b60405180910390f35b34801561053b57600080fd5b50610544610f8c565b005b34801561055257600080fd5b5061055b610fc9565b60405161056891906130fb565b60405180910390f35b34801561057d57600080fd5b5061059860048036038101906105939190613262565b610ff3565b6040516105a59190612f81565b60405180910390f35b3480156105ba57600080fd5b506105c361105e565b6040516105d09190613035565b60405180910390f35b3480156105e557600080fd5b5061060060048036038101906105fb919061348a565b6110f0565b60405161060d9190612f81565b60405180910390f35b34801561062257600080fd5b5061062b61112b565b6040516106389190613247565b60405180910390f35b34801561064d57600080fd5b50610668600480360381019061066391906134ff565b611132565b005b34801561067657600080fd5b50610691600480360381019061068c91906135e0565b611148565b005b34801561069f57600080fd5b506106ba60048036038101906106b5919061308d565b6111aa565b6040516106c79190613035565b60405180910390f35b3480156106dc57600080fd5b506106e56111bc565b6040516106f291906130fb565b60405180910390f35b610715600480360381019061071091906133d7565b6111e2565b005b34801561072357600080fd5b5061072c61133a565b6040516107399190613247565b60405180910390f35b34801561074e57600080fd5b5061076960048036038101906107649190613262565b61135e565b005b34801561077757600080fd5b50610780611387565b60405161078d9190613247565b60405180910390f35b3480156107a257600080fd5b506107bd60048036038101906107b89190613663565b6113ab565b6040516107ca9190612f81565b60405180910390f35b3480156107df57600080fd5b506107fa60048036038101906107f5919061345d565b61143f565b005b600061080782611537565b9050919050565b60606000805461081d906136d2565b80601f0160208091040260200160405190810160405280929190818152602001828054610849906136d2565b80156108965780601f1061086b57610100808354040283529160200191610896565b820191906000526020600020905b81548152906001019060200180831161087957829003601f168201915b5050505050905090565b60006108ab826115b1565b6108ea576040517f08c379a00000000000000000000000000000000000000000000000000000000081526004016108e190613776565b60405180910390fd5b6004600083815260200190815260200160002060009054906101000a900473ffffffffffffffffffffffffffffffffffffffff169050919050565b600061093082610d65565b90508073ffffffffffffffffffffffffffffffffffffffff168373ffffffffffffffffffffffffffffffffffffffff1614156109a1576040517f08c379a000000000000000000000000000000000000000000000000000000000815260040161099890613808565b60405180910390fd5b8073ffffffffffffffffffffffffffffffffffffffff166109c061161d565b73ffffffffffffffffffffffffffffffffffffffff1614806109ef57506109ee816109e961161d565b6113ab565b5b610a2e576040517f08c379a0000000000000000000000000000000000000000000000000000000008152600401610a259061389a565b60405180910390fd5b610a388383611625565b505050565b610a4e610a4861161d565b826116de565b610a8d576040517f08c379a0000000000000000000000000000000000000000000000000000000008152600401610a849061392c565b60405180910390fd5b610a988383836117bc565b505050565b600060086000838152602001908152602001600020600101549050919050565b610ac682610a9d565b610ad781610ad261161d565b611a23565b610ae18383611ac0565b505050565b610aee61161d565b73ffffffffffffffffffffffffffffffffffffffff168173ffffffffffffffffffffffffffffffffffffffff1614610b5b576040517f08c379a0000000000000000000000000000000000000000000000000000000008152600401610b52906139be565b60405180910390fd5b610b658282611ba1565b5050565b7f65d7a28e3265b37a6474929f336521b332c1681b933f6cb9f3376673440d862a610b9b81610b9661161d565b611a23565b610ba3611c83565b50565b610bc183838360405180602001604052806000815250611148565b505050565b610bd7610bd161161d565b826116de565b610c16576040517f08c379a0000000000000000000000000000000000000000000000000000000008152600401610c0d90613a50565b60405180910390fd5b610c1f81611d25565b50565b6000600960009054906101000a900460ff16905090565b60006001600c83604051610c4d9190613aac565b908152602001604051809103902060009054906101000a900460ff1660ff161415610cad576040517f08c379a0000000000000000000000000000000000000000000000000000000008152600401610ca490613b0f565b60405180910390fd5b66b1a2bc2ec50000341015610cf7576040517f08c379a0000000000000000000000000000000000000000000000000000000008152600401610cee90613b7b565b60405180910390fd5b6000610d03600a611d31565b9050610d0f600a611d3f565b6001600c84604051610d219190613aac565b908152602001604051809103902060006101000a81548160ff021916908360ff160217905550610d518482611d55565b610d5b8184611f2f565b8091505092915050565b6000806002600084815260200190815260200160002060009054906101000a900473ffffffffffffffffffffffffffffffffffffffff169050600073ffffffffffffffffffffffffffffffffffffffff168173ffffffffffffffffffffffffffffffffffffffff161415610e0e576040517f08c379a0000000000000000000000000000000000000000000000000000000008152600401610e0590613c0d565b60405180910390fd5b80915050919050565b60008073ffffffffffffffffffffffffffffffffffffffff168273ffffffffffffffffffffffffffffffffffffffff161415610e88576040517f08c379a0000000000000000000000000000000000000000000000000000000008152600401610e7f90613c9f565b60405180910390fd5b600360008373ffffffffffffffffffffffffffffffffffffffff1673ffffffffffffffffffffffffffffffffffffffff168152602001908152602001600020549050919050565b610ed761161d565b73ffffffffffffffffffffffffffffffffffffffff16610ef5610fc9565b73ffffffffffffffffffffffffffffffffffffffff1614610f4b576040517f08c379a0000000000000000000000000000000000000000000000000000000008152600401610f4290613d0b565b60405180910390fd5b610f556000611fa3565b565b7fa49807205ce4d355092ef5a8a18f56e8913cf4a201fbe287825b095693c2177581565b6000610f87600a611d31565b905090565b7f65d7a28e3265b37a6474929f336521b332c1681b933f6cb9f3376673440d862a610fbe81610fb961161d565b611a23565b610fc6612069565b50565b6000600760009054906101000a900473ffffffffffffffffffffffffffffffffffffffff16905090565b60006008600084815260200190815260200160002060000160008373ffffffffffffffffffffffffffffffffffffffff1673ffffffffffffffffffffffffffffffffffffffff16815260200190815260200160002060009054906101000a900460ff16905092915050565b60606001805461106d906136d2565b80601f0160208091040260200160405190810160405280929190818152602001828054611099906136d2565b80156110e65780601f106110bb576101008083540402835291602001916110e6565b820191906000526020600020905b8154815290600101906020018083116110c957829003601f168201915b5050505050905090565b60006001600c836040516111049190613aac565b908152602001604051809103902060009054906101000a900460ff1660ff16149050919050565b6000801b81565b61114461113d61161d565b838361210c565b5050565b61115961115361161d565b836116de565b611198576040517f08c379a000000000000000000000000000000000000000000000000000000000815260040161118f9061392c565b60405180910390fd5b6111a484848484612279565b50505050565b60606111b5826122d5565b9050919050565b600b60009054906101000a900473ffffffffffffffffffffffffffffffffffffffff1681565b7f9f2df0fed2c77648de5860a4cc508cd0818c85b8b8a1ab4ceeef8d981c8956a66112148161120f61161d565b611a23565b6001600c836040516112269190613aac565b908152602001604051809103902060009054906101000a900460ff1660ff161415611286576040517f08c379a000000000000000000000000000000000000000000000000000000000815260040161127d90613d77565b60405180910390fd5b66b1a2bc2ec500003410156112d0576040517f08c379a00000000000000000000000000000000000000000000000000000000081526004016112c790613de3565b60405180910390fd5b60006112dc600a611d31565b90506112e8600a611d3f565b6001600c846040516112fa9190613aac565b908152602001604051809103902060006101000a81548160ff021916908360ff16021790555061132a8482612427565b6113348184611f2f565b50505050565b7f9f2df0fed2c77648de5860a4cc508cd0818c85b8b8a1ab4ceeef8d981c8956a681565b61136782610a9d565b6113788161137361161d565b611a23565b6113828383611ba1565b505050565b7f65d7a28e3265b37a6474929f336521b332c1681b933f6cb9f3376673440d862a81565b6000600560008473ffffffffffffffffffffffffffffffffffffffff1673ffffffffffffffffffffffffffffffffffffffff16815260200190815260200160002060008373ffffffffffffffffffffffffffffffffffffffff1673ffffffffffffffffffffffffffffffffffffffff16815260200190815260200160002060009054906101000a900460ff16905092915050565b61144761161d565b73ffffffffffffffffffffffffffffffffffffffff16611465610fc9565b73ffffffffffffffffffffffffffffffffffffffff16146114bb576040517f08c379a00000000000000000000000000000000000000000000000000000000081526004016114b290613d0b565b60405180910390fd5b600073ffffffffffffffffffffffffffffffffffffffff168173ffffffffffffffffffffffffffffffffffffffff16141561152b576040517f08c379a000000000000000000000000000000000000000000000000000000000815260040161152290613e75565b60405180910390fd5b61153481611fa3565b50565b60007f7965db0b000000000000000000000000000000000000000000000000000000007bffffffffffffffffffffffffffffffffffffffffffffffffffffffff1916827bffffffffffffffffffffffffffffffffffffffffffffffffffffffff191614806115aa57506115a982612445565b5b9050919050565b60008073ffffffffffffffffffffffffffffffffffffffff166002600084815260200190815260200160002060009054906101000a900473ffffffffffffffffffffffffffffffffffffffff1673ffffffffffffffffffffffffffffffffffffffff1614159050919050565b600033905090565b816004600083815260200190815260200160002060006101000a81548173ffffffffffffffffffffffffffffffffffffffff021916908373ffffffffffffffffffffffffffffffffffffffff160217905550808273ffffffffffffffffffffffffffffffffffffffff1661169883610d65565b73ffffffffffffffffffffffffffffffffffffffff167f8c5be1e5ebec7d5bd14f71427d1e84f3dd0314c0f7b2291e5b200ac8c7c3b92560405160405180910390a45050565b60006116e9826115b1565b611728576040517f08c379a000000000000000000000000000000000000000000000000000000000815260040161171f90613f07565b60405180910390fd5b600061173383610d65565b90508073ffffffffffffffffffffffffffffffffffffffff168473ffffffffffffffffffffffffffffffffffffffff1614806117a257508373ffffffffffffffffffffffffffffffffffffffff1661178a846108a0565b73ffffffffffffffffffffffffffffffffffffffff16145b806117b357506117b281856113ab565b5b91505092915050565b8273ffffffffffffffffffffffffffffffffffffffff166117dc82610d65565b73ffffffffffffffffffffffffffffffffffffffff1614611832576040517f08c379a000000000000000000000000000000000000000000000000000000000815260040161182990613f99565b60405180910390fd5b600073ffffffffffffffffffffffffffffffffffffffff168273ffffffffffffffffffffffffffffffffffffffff1614156118a2576040517f08c379a00000000000000000000000000000000000000000000000000000000081526004016118999061402b565b60405180910390fd5b6118ad838383612527565b6118b8600082611625565b6001600360008573ffffffffffffffffffffffffffffffffffffffff1673ffffffffffffffffffffffffffffffffffffffff1681526020019081526020016000206000828254611908919061407a565b925050819055506001600360008473ffffffffffffffffffffffffffffffffffffffff1673ffffffffffffffffffffffffffffffffffffffff168152602001908152602001600020600082825461195f91906140ae565b92505081905550816002600083815260200190815260200160002060006101000a81548173ffffffffffffffffffffffffffffffffffffffff021916908373ffffffffffffffffffffffffffffffffffffffff160217905550808273ffffffffffffffffffffffffffffffffffffffff168473ffffffffffffffffffffffffffffffffffffffff167fddf252ad1be2c89b69c2b068fc378daa952ba7f163c4a11628f55a4df523b3ef60405160405180910390a4611a1e83838361257f565b505050565b611a2d8282610ff3565b611abc57611a528173ffffffffffffffffffffffffffffffffffffffff166014612584565b611a608360001c6020612584565b604051602001611a7192919061419c565b6040516020818303038152906040526040517f08c379a0000000000000000000000000000000000000000000000000000000008152600401611ab39190613035565b60405180910390fd5b5050565b611aca8282610ff3565b611b9d5760016008600084815260200190815260200160002060000160008373ffffffffffffffffffffffffffffffffffffffff1673ffffffffffffffffffffffffffffffffffffffff16815260200190815260200160002060006101000a81548160ff021916908315150217905550611b4261161d565b73ffffffffffffffffffffffffffffffffffffffff168173ffffffffffffffffffffffffffffffffffffffff16837f2f8788117e7eff1d82e926ec794901d17c78024a50270940304540a733656f0d60405160405180910390a45b5050565b611bab8282610ff3565b15611c7f5760006008600084815260200190815260200160002060000160008373ffffffffffffffffffffffffffffffffffffffff1673ffffffffffffffffffffffffffffffffffffffff16815260200190815260200160002060006101000a81548160ff021916908315150217905550611c2461161d565b73ffffffffffffffffffffffffffffffffffffffff168173ffffffffffffffffffffffffffffffffffffffff16837ff6391f5c32d9c69d2a47ea670b442974b53935d1edc7fd64eb21e047a839171b60405160405180910390a45b5050565b611c8b610c22565b611cca576040517f08c379a0000000000000000000000000000000000000000000000000000000008152600401611cc190614222565b60405180910390fd5b6000600960006101000a81548160ff0219169083151502179055507f5db9ee0a495bf2e6ff9c91a7834c1ba4fdd244a5e8aa4e537bd38aeae4b073aa611d0e61161d565b604051611d1b91906130fb565b60405180910390a1565b611d2e816127c0565b50565b600081600001549050919050565b6001816000016000828254019250508190555050565b600073ffffffffffffffffffffffffffffffffffffffff168273ffffffffffffffffffffffffffffffffffffffff161415611dc5576040517f08c379a0000000000000000000000000000000000000000000000000000000008152600401611dbc9061428e565b60405180910390fd5b611dce816115b1565b15611e0e576040517f08c379a0000000000000000000000000000000000000000000000000000000008152600401611e05906142fa565b60405180910390fd5b611e1a60008383612527565b6001600360008473ffffffffffffffffffffffffffffffffffffffff1673ffffffffffffffffffffffffffffffffffffffff1681526020019081526020016000206000828254611e6a91906140ae565b92505081905550816002600083815260200190815260200160002060006101000a81548173ffffffffffffffffffffffffffffffffffffffff021916908373ffffffffffffffffffffffffffffffffffffffff160217905550808273ffffffffffffffffffffffffffffffffffffffff16600073ffffffffffffffffffffffffffffffffffffffff167fddf252ad1be2c89b69c2b068fc378daa952ba7f163c4a11628f55a4df523b3ef60405160405180910390a4611f2b6000838361257f565b5050565b611f38826115b1565b611f77576040517f08c379a0000000000000000000000000000000000000000000000000000000008152600401611f6e9061438c565b60405180910390fd5b80600660008481526020019081526020016000209080519060200190611f9e929190612dea565b505050565b6000600760009054906101000a900473ffffffffffffffffffffffffffffffffffffffff16905081600760006101000a81548173ffffffffffffffffffffffffffffffffffffffff021916908373ffffffffffffffffffffffffffffffffffffffff1602179055508173ffffffffffffffffffffffffffffffffffffffff168173ffffffffffffffffffffffffffffffffffffffff167f8be0079c531659141344cd1fd0a4f28419497f9722a3daafe3b4186f6b6457e060405160405180910390a35050565b612071610c22565b156120b1576040517f08c379a00000000000000000000000000000000000000000000000000000000081526004016120a8906143f8565b60405180910390fd5b6001600960006101000a81548160ff0219169083151502179055507f62e78cea01bee320cd4e420270b5ea74000d11b0c9f74754ebdbfc544b05a2586120f561161d565b60405161210291906130fb565b60405180910390a1565b8173ffffffffffffffffffffffffffffffffffffffff168373ffffffffffffffffffffffffffffffffffffffff16141561217b576040517f08c379a000000000000000000000000000000000000000000000000000000000815260040161217290614464565b60405180910390fd5b80600560008573ffffffffffffffffffffffffffffffffffffffff1673ffffffffffffffffffffffffffffffffffffffff16815260200190815260200160002060008473ffffffffffffffffffffffffffffffffffffffff1673ffffffffffffffffffffffffffffffffffffffff16815260200190815260200160002060006101000a81548160ff0219169083151502179055508173ffffffffffffffffffffffffffffffffffffffff168373ffffffffffffffffffffffffffffffffffffffff167f17307eab39ab6107e8899845ad3d59bd9653f200f220920489ca2b5937696c318360405161226c9190612f81565b60405180910390a3505050565b6122848484846117bc565b61229084848484612813565b6122cf576040517f08c379a00000000000000000000000000000000000000000000000000000000081526004016122c6906144f6565b60405180910390fd5b50505050565b60606122e0826115b1565b61231f576040517f08c379a000000000000000000000000000000000000000000000000000000000815260040161231690614588565b60405180910390fd5b600060066000848152602001908152602001600020805461233f906136d2565b80601f016020809104026020016040519081016040528092919081815260200182805461236b906136d2565b80156123b85780601f1061238d576101008083540402835291602001916123b8565b820191906000526020600020905b81548152906001019060200180831161239b57829003601f168201915b5050505050905060006123c961299b565b90506000815114156123df578192505050612422565b6000825111156124145780826040516020016123fc9291906145a8565b60405160208183030381529060405292505050612422565b61241d846129d8565b925050505b919050565b612441828260405180602001604052806000815250612a7f565b5050565b60007f80ac58cd000000000000000000000000000000000000000000000000000000007bffffffffffffffffffffffffffffffffffffffffffffffffffffffff1916827bffffffffffffffffffffffffffffffffffffffffffffffffffffffff1916148061251057507f5b5e139f000000000000000000000000000000000000000000000000000000007bffffffffffffffffffffffffffffffffffffffffffffffffffffffff1916827bffffffffffffffffffffffffffffffffffffffffffffffffffffffff1916145b80612520575061251f82612ada565b5b9050919050565b61252f610c22565b1561256f576040517f08c379a0000000000000000000000000000000000000000000000000000000008152600401612566906143f8565b60405180910390fd5b61257a838383612b44565b505050565b505050565b60606000600283600261259791906145cc565b6125a191906140ae565b67ffffffffffffffff8111156125ba576125b96132ac565b5b6040519080825280601f01601f1916602001820160405280156125ec5781602001600182028036833780820191505090505b5090507f30000000000000000000000000000000000000000000000000000000000000008160008151811061262457612623614626565b5b60200101907effffffffffffffffffffffffffffffffffffffffffffffffffffffffffffff1916908160001a9053507f78000000000000000000000000000000000000000000000000000000000000008160018151811061268857612687614626565b5b60200101907effffffffffffffffffffffffffffffffffffffffffffffffffffffffffffff1916908160001a905350600060018460026126c891906145cc565b6126d291906140ae565b90505b6001811115612772577f3031323334353637383961626364656600000000000000000000000000000000600f86166010811061271457612713614626565b5b1a60f81b82828151811061272b5761272a614626565b5b60200101907effffffffffffffffffffffffffffffffffffffffffffffffffffffffffffff1916908160001a905350600485901c94508061276b90614655565b90506126d5565b50600084146127b6576040517f08c379a00000000000000000000000000000000000000000000000000000000081526004016127ad906146cb565b60405180910390fd5b8091505092915050565b6127c981612b49565b60006006600083815260200190815260200160002080546127e9906136d2565b9050146128105760066000828152602001908152602001600020600061280f9190612e70565b5b50565b60006128348473ffffffffffffffffffffffffffffffffffffffff16612c66565b1561298e578373ffffffffffffffffffffffffffffffffffffffff1663150b7a0261285d61161d565b8786866040518563ffffffff1660e01b815260040161287f9493929190614740565b6020604051808303816000875af19250505080156128bb57506040513d601f19601f820116820180604052508101906128b891906147a1565b60015b61293e573d80600081146128eb576040519150601f19603f3d011682016040523d82523d6000602084013e6128f0565b606091505b50600081511415612936576040517f08c379a000000000000000000000000000000000000000000000000000000000815260040161292d906144f6565b60405180910390fd5b805181602001fd5b63150b7a0260e01b7bffffffffffffffffffffffffffffffffffffffffffffffffffffffff1916817bffffffffffffffffffffffffffffffffffffffffffffffffffffffff191614915050612993565b600190505b949350505050565b60606040518060400160405280600781526020017f697066733a2f2f00000000000000000000000000000000000000000000000000815250905090565b60606129e3826115b1565b612a22576040517f08c379a0000000000000000000000000000000000000000000000000000000008152600401612a1990614840565b60405180910390fd5b6000612a2c61299b565b90506000815111612a4c5760405180602001604052806000815250612a77565b80612a5684612c89565b604051602001612a679291906145a8565b6040516020818303038152906040525b915050919050565b612a898383611d55565b612a966000848484612813565b612ad5576040517f08c379a0000000000000000000000000000000000000000000000000000000008152600401612acc906144f6565b60405180910390fd5b505050565b60007f01ffc9a7000000000000000000000000000000000000000000000000000000007bffffffffffffffffffffffffffffffffffffffffffffffffffffffff1916827bffffffffffffffffffffffffffffffffffffffffffffffffffffffff1916149050919050565b505050565b6000612b5482610d65565b9050612b6281600084612527565b612b6d600083611625565b6001600360008373ffffffffffffffffffffffffffffffffffffffff1673ffffffffffffffffffffffffffffffffffffffff1681526020019081526020016000206000828254612bbd919061407a565b925050819055506002600083815260200190815260200160002060006101000a81549073ffffffffffffffffffffffffffffffffffffffff021916905581600073ffffffffffffffffffffffffffffffffffffffff168273ffffffffffffffffffffffffffffffffffffffff167fddf252ad1be2c89b69c2b068fc378daa952ba7f163c4a11628f55a4df523b3ef60405160405180910390a4612c628160008461257f565b5050565b6000808273ffffffffffffffffffffffffffffffffffffffff163b119050919050565b60606000821415612cd1576040518060400160405280600181526020017f30000000000000000000000000000000000000000000000000000000000000008152509050612de5565b600082905060005b60008214612d03578080612cec90614860565b915050600a82612cfc91906148d8565b9150612cd9565b60008167ffffffffffffffff811115612d1f57612d1e6132ac565b5b6040519080825280601f01601f191660200182016040528015612d515781602001600182028036833780820191505090505b5090505b60008514612dde57600182612d6a919061407a565b9150600a85612d799190614909565b6030612d8591906140ae565b60f81b818381518110612d9b57612d9a614626565b5b60200101907effffffffffffffffffffffffffffffffffffffffffffffffffffffffffffff1916908160001a905350600a85612dd791906148d8565b9450612d55565b8093505050505b919050565b828054612df6906136d2565b90600052602060002090601f016020900481019282612e185760008555612e5f565b82601f10612e3157805160ff1916838001178555612e5f565b82800160010185558215612e5f579182015b82811115612e5e578251825591602001919060010190612e43565b5b509050612e6c9190612eb0565b5090565b508054612e7c906136d2565b6000825580601f10612e8e5750612ead565b601f016020900490600052602060002090810190612eac9190612eb0565b5b50565b5b80821115612ec9576000816000905550600101612eb1565b5090565b6000604051905090565b600080fd5b600080fd5b60007fffffffff0000000000000000000000000000000000000000000000000000000082169050919050565b612f1681612ee1565b8114612f2157600080fd5b50565b600081359050612f3381612f0d565b92915050565b600060208284031215612f4f57612f4e612ed7565b5b6000612f5d84828501612f24565b91505092915050565b60008115159050919050565b612f7b81612f66565b82525050565b6000602082019050612f966000830184612f72565b92915050565b600081519050919050565b600082825260208201905092915050565b60005b83811015612fd6578082015181840152602081019050612fbb565b83811115612fe5576000848401525b50505050565b6000601f19601f8301169050919050565b600061300782612f9c565b6130118185612fa7565b9350613021818560208601612fb8565b61302a81612feb565b840191505092915050565b6000602082019050818103600083015261304f8184612ffc565b905092915050565b6000819050919050565b61306a81613057565b811461307557600080fd5b50565b60008135905061308781613061565b92915050565b6000602082840312156130a3576130a2612ed7565b5b60006130b184828501613078565b91505092915050565b600073ffffffffffffffffffffffffffffffffffffffff82169050919050565b60006130e5826130ba565b9050919050565b6130f5816130da565b82525050565b600060208201905061311060008301846130ec565b92915050565b61311f816130da565b811461312a57600080fd5b50565b60008135905061313c81613116565b92915050565b6000806040838503121561315957613158612ed7565b5b60006131678582860161312d565b925050602061317885828601613078565b9150509250929050565b60008060006060848603121561319b5761319a612ed7565b5b60006131a98682870161312d565b93505060206131ba8682870161312d565b92505060406131cb86828701613078565b9150509250925092565b6000819050919050565b6131e8816131d5565b81146131f357600080fd5b50565b600081359050613205816131df565b92915050565b60006020828403121561322157613220612ed7565b5b600061322f848285016131f6565b91505092915050565b613241816131d5565b82525050565b600060208201905061325c6000830184613238565b92915050565b6000806040838503121561327957613278612ed7565b5b6000613287858286016131f6565b92505060206132988582860161312d565b9150509250929050565b600080fd5b600080fd5b7f4e487b7100000000000000000000000000000000000000000000000000000000600052604160045260246000fd5b6132e482612feb565b810181811067ffffffffffffffff82111715613303576133026132ac565b5b80604052505050565b6000613316612ecd565b905061332282826132db565b919050565b600067ffffffffffffffff821115613342576133416132ac565b5b61334b82612feb565b9050602081019050919050565b82818337600083830152505050565b600061337a61337584613327565b61330c565b905082815260208101848484011115613396576133956132a7565b5b6133a1848285613358565b509392505050565b600082601f8301126133be576133bd6132a2565b5b81356133ce848260208601613367565b91505092915050565b600080604083850312156133ee576133ed612ed7565b5b60006133fc8582860161312d565b925050602083013567ffffffffffffffff81111561341d5761341c612edc565b5b613429858286016133a9565b9150509250929050565b61343c81613057565b82525050565b60006020820190506134576000830184613433565b92915050565b60006020828403121561347357613472612ed7565b5b60006134818482850161312d565b91505092915050565b6000602082840312156134a05761349f612ed7565b5b600082013567ffffffffffffffff8111156134be576134bd612edc565b5b6134ca848285016133a9565b91505092915050565b6134dc81612f66565b81146134e757600080fd5b50565b6000813590506134f9816134d3565b92915050565b6000806040838503121561351657613515612ed7565b5b60006135248582860161312d565b9250506020613535858286016134ea565b9150509250929050565b600067ffffffffffffffff82111561355a576135596132ac565b5b61356382612feb565b9050602081019050919050565b600061358361357e8461353f565b61330c565b90508281526020810184848401111561359f5761359e6132a7565b5b6135aa848285613358565b509392505050565b600082601f8301126135c7576135c66132a2565b5b81356135d7848260208601613570565b91505092915050565b600080600080608085870312156135fa576135f9612ed7565b5b60006136088782880161312d565b94505060206136198782880161312d565b935050604061362a87828801613078565b925050606085013567ffffffffffffffff81111561364b5761364a612edc565b5b613657878288016135b2565b91505092959194509250565b6000806040838503121561367a57613679612ed7565b5b60006136888582860161312d565b92505060206136998582860161312d565b9150509250929050565b7f4e487b7100000000000000000000000000000000000000000000000000000000600052602260045260246000fd5b600060028204905060018216806136ea57607f821691505b602082108114156136fe576136fd6136a3565b5b50919050565b7f4552433732313a20617070726f76656420717565727920666f72206e6f6e657860008201527f697374656e7420746f6b656e0000000000000000000000000000000000000000602082015250565b6000613760602c83612fa7565b915061376b82613704565b604082019050919050565b6000602082019050818103600083015261378f81613753565b9050919050565b7f4552433732313a20617070726f76616c20746f2063757272656e74206f776e6560008201527f7200000000000000000000000000000000000000000000000000000000000000602082015250565b60006137f2602183612fa7565b91506137fd82613796565b604082019050919050565b60006020820190508181036000830152613821816137e5565b9050919050565b7f4552433732313a20617070726f76652063616c6c6572206973206e6f74206f7760008201527f6e6572206e6f7220617070726f76656420666f7220616c6c0000000000000000602082015250565b6000613884603883612fa7565b915061388f82613828565b604082019050919050565b600060208201905081810360008301526138b381613877565b9050919050565b7f4552433732313a207472616e736665722063616c6c6572206973206e6f74206f60008201527f776e6572206e6f7220617070726f766564000000000000000000000000000000602082015250565b6000613916603183612fa7565b9150613921826138ba565b604082019050919050565b6000602082019050818103600083015261394581613909565b9050919050565b7f416363657373436f6e74726f6c3a2063616e206f6e6c792072656e6f756e636560008201527f20726f6c657320666f722073656c660000000000000000000000000000000000602082015250565b60006139a8602f83612fa7565b91506139b38261394c565b604082019050919050565b600060208201905081810360008301526139d78161399b565b9050919050565b7f4552433732314275726e61626c653a2063616c6c6572206973206e6f74206f7760008201527f6e6572206e6f7220617070726f76656400000000000000000000000000000000602082015250565b6000613a3a603083612fa7565b9150613a45826139de565b604082019050919050565b60006020820190508181036000830152613a6981613a2d565b9050919050565b600081905092915050565b6000613a8682612f9c565b613a908185613a70565b9350613aa0818560208601612fb8565b80840191505092915050565b6000613ab88284613a7b565b915081905092915050565b7f4e465420616c7265616479206d696e7465642100000000000000000000000000600082015250565b6000613af9601383612fa7565b9150613b0482613ac3565b602082019050919050565b60006020820190508181036000830152613b2881613aec565b9050919050565b7f4e65656420746f20706179207570210000000000000000000000000000000000600082015250565b6000613b65600f83612fa7565b9150613b7082613b2f565b602082019050919050565b60006020820190508181036000830152613b9481613b58565b9050919050565b7f4552433732313a206f776e657220717565727920666f72206e6f6e657869737460008201527f656e7420746f6b656e0000000000000000000000000000000000000000000000602082015250565b6000613bf7602983612fa7565b9150613c0282613b9b565b604082019050919050565b60006020820190508181036000830152613c2681613bea565b9050919050565b7f4552433732313a2062616c616e636520717565727920666f7220746865207a6560008201527f726f206164647265737300000000000000000000000000000000000000000000602082015250565b6000613c89602a83612fa7565b9150613c9482613c2d565b604082019050919050565b60006020820190508181036000830152613cb881613c7c565b9050919050565b7f4f776e61626c653a2063616c6c6572206973206e6f7420746865206f776e6572600082015250565b6000613cf5602083612fa7565b9150613d0082613cbf565b602082019050919050565b60006020820190508181036000830152613d2481613ce8565b9050919050565b7f41706520697320616c7265616479206d696e7465640000000000000000000000600082015250565b6000613d61601583612fa7565b9150613d6c82613d2b565b602082019050919050565b60006020820190508181036000830152613d9081613d54565b9050919050565b7f496e73756666696369656e7420616d6f756e7420746f206d696e740000000000600082015250565b6000613dcd601b83612fa7565b9150613dd882613d97565b602082019050919050565b60006020820190508181036000830152613dfc81613dc0565b9050919050565b7f4f776e61626c653a206e6577206f776e657220697320746865207a65726f206160008201527f6464726573730000000000000000000000000000000000000000000000000000602082015250565b6000613e5f602683612fa7565b9150613e6a82613e03565b604082019050919050565b60006020820190508181036000830152613e8e81613e52565b9050919050565b7f4552433732313a206f70657261746f7220717565727920666f72206e6f6e657860008201527f697374656e7420746f6b656e0000000000000000000000000000000000000000602082015250565b6000613ef1602c83612fa7565b9150613efc82613e95565b604082019050919050565b60006020820190508181036000830152613f2081613ee4565b9050919050565b7f4552433732313a207472616e736665722066726f6d20696e636f72726563742060008201527f6f776e6572000000000000000000000000000000000000000000000000000000602082015250565b6000613f83602583612fa7565b9150613f8e82613f27565b604082019050919050565b60006020820190508181036000830152613fb281613f76565b9050919050565b7f4552433732313a207472616e7366657220746f20746865207a65726f2061646460008201527f7265737300000000000000000000000000000000000000000000000000000000602082015250565b6000614015602483612fa7565b915061402082613fb9565b604082019050919050565b6000602082019050818103600083015261404481614008565b9050919050565b7f4e487b7100000000000000000000000000000000000000000000000000000000600052601160045260246000fd5b600061408582613057565b915061409083613057565b9250828210156140a3576140a261404b565b5b828203905092915050565b60006140b982613057565b91506140c483613057565b9250827fffffffffffffffffffffffffffffffffffffffffffffffffffffffffffffffff038211156140f9576140f861404b565b5b828201905092915050565b7f416363657373436f6e74726f6c3a206163636f756e7420000000000000000000600082015250565b600061413a601783613a70565b915061414582614104565b601782019050919050565b7f206973206d697373696e6720726f6c6520000000000000000000000000000000600082015250565b6000614186601183613a70565b915061419182614150565b601182019050919050565b60006141a78261412d565b91506141b38285613a7b565b91506141be82614179565b91506141ca8284613a7b565b91508190509392505050565b7f5061757361626c653a206e6f7420706175736564000000000000000000000000600082015250565b600061420c601483612fa7565b9150614217826141d6565b602082019050919050565b6000602082019050818103600083015261423b816141ff565b9050919050565b7f4552433732313a206d696e7420746f20746865207a65726f2061646472657373600082015250565b6000614278602083612fa7565b915061428382614242565b602082019050919050565b600060208201905081810360008301526142a78161426b565b9050919050565b7f4552433732313a20746f6b656e20616c7265616479206d696e74656400000000600082015250565b60006142e4601c83612fa7565b91506142ef826142ae565b602082019050919050565b60006020820190508181036000830152614313816142d7565b9050919050565b7f45524337323155524953746f726167653a2055524920736574206f66206e6f6e60008201527f6578697374656e7420746f6b656e000000000000000000000000000000000000602082015250565b6000614376602e83612fa7565b91506143818261431a565b604082019050919050565b600060208201905081810360008301526143a581614369565b9050919050565b7f5061757361626c653a2070617573656400000000000000000000000000000000600082015250565b60006143e2601083612fa7565b91506143ed826143ac565b602082019050919050565b60006020820190508181036000830152614411816143d5565b9050919050565b7f4552433732313a20617070726f766520746f2063616c6c657200000000000000600082015250565b600061444e601983612fa7565b915061445982614418565b602082019050919050565b6000602082019050818103600083015261447d81614441565b9050919050565b7f4552433732313a207472616e7366657220746f206e6f6e20455243373231526560008201527f63656976657220696d706c656d656e7465720000000000000000000000000000602082015250565b60006144e0603283612fa7565b91506144eb82614484565b604082019050919050565b6000602082019050818103600083015261450f816144d3565b9050919050565b7f45524337323155524953746f726167653a2055524920717565727920666f722060008201527f6e6f6e6578697374656e7420746f6b656e000000000000000000000000000000602082015250565b6000614572603183612fa7565b915061457d82614516565b604082019050919050565b600060208201905081810360008301526145a181614565565b9050919050565b60006145b48285613a7b565b91506145c08284613a7b565b91508190509392505050565b60006145d782613057565b91506145e283613057565b9250817fffffffffffffffffffffffffffffffffffffffffffffffffffffffffffffffff048311821515161561461b5761461a61404b565b5b828202905092915050565b7f4e487b7100000000000000000000000000000000000000000000000000000000600052603260045260246000fd5b600061466082613057565b915060008214156146745761467361404b565b5b600182039050919050565b7f537472696e67733a20686578206c656e67746820696e73756666696369656e74600082015250565b60006146b5602083612fa7565b91506146c08261467f565b602082019050919050565b600060208201905081810360008301526146e4816146a8565b9050919050565b600081519050919050565b600082825260208201905092915050565b6000614712826146eb565b61471c81856146f6565b935061472c818560208601612fb8565b61473581612feb565b840191505092915050565b600060808201905061475560008301876130ec565b61476260208301866130ec565b61476f6040830185613433565b81810360608301526147818184614707565b905095945050505050565b60008151905061479b81612f0d565b92915050565b6000602082840312156147b7576147b6612ed7565b5b60006147c58482850161478c565b91505092915050565b7f4552433732314d657461646174613a2055524920717565727920666f72206e6f60008201527f6e6578697374656e7420746f6b656e0000000000000000000000000000000000602082015250565b600061482a602f83612fa7565b9150614835826147ce565b604082019050919050565b600060208201905081810360008301526148598161481d565b9050919050565b600061486b82613057565b91507fffffffffffffffffffffffffffffffffffffffffffffffffffffffffffffffff82141561489e5761489d61404b565b5b600182019050919050565b7f4e487b7100000000000000000000000000000000000000000000000000000000600052601260045260246000fd5b60006148e382613057565b91506148ee83613057565b9250826148fe576148fd6148a9565b5b828204905092915050565b600061491482613057565b915061491f83613057565b92508261492f5761492e6148a9565b5b82820690509291505056fea26469706673582212200aa3fd3af97e0eac70a6af7d2631598190e644728dd2c58ab0d103b80ec6889764736f6c634300080a0033",
  "linkReferences": {},
  "deployedLinkReferences": {}
}