{
  "_format": "hh-sol-artifact-1",
  "contractName": "Ape",
  "sourceName": "contracts/Ape.sol",
  "abi": [
    {
      "inputs": [],
      "stateMutability": "nonpayable",
      "type": "constructor"
    },
    {
      "anonymous": false,
      "inputs": [
        {
          "indexed": true,
          "internalType": "address",
          "name": "owner",
          "type": "address"
        },
        {
          "indexed": true,
          "internalType": "address",
          "name": "approved",
          "type": "address"
        },
        {
          "indexed": true,
          "internalType": "uint256",
          "name": "tokenId",
          "type": "uint256"
        }
      ],
      "name": "Approval",
      "type": "event"
    },
    {
      "anonymous": false,
      "inputs": [
        {
          "indexed": true,
          "internalType": "address",
          "name": "owner",
          "type": "address"
        },
        {
          "indexed": true,
          "internalType": "address",
          "name": "operator",
          "type": "address"
        },
        {
          "indexed": false,
          "internalType": "bool",
          "name": "approved",
          "type": "bool"
        }
      ],
      "name": "ApprovalForAll",
      "type": "event"
    },
    {
      "anonymous": false,
      "inputs": [
        {
          "indexed": true,
          "internalType": "address",
          "name": "previousOwner",
          "type": "address"
        },
        {
          "indexed": true,
          "internalType": "address",
          "name": "newOwner",
          "type": "address"
        }
      ],
      "name": "OwnershipTransferred",
      "type": "event"
    },
    {
      "anonymous": false,
      "inputs": [
        {
          "indexed": false,
          "internalType": "address",
          "name": "account",
          "type": "address"
        }
      ],
      "name": "Paused",
      "type": "event"
    },
    {
      "anonymous": false,
      "inputs": [
        {
          "indexed": true,
          "internalType": "bytes32",
          "name": "role",
          "type": "bytes32"
        },
        {
          "indexed": true,
          "internalType": "bytes32",
          "name": "previousAdminRole",
          "type": "bytes32"
        },
        {
          "indexed": true,
          "internalType": "bytes32",
          "name": "newAdminRole",
          "type": "bytes32"
        }
      ],
      "name": "RoleAdminChanged",
      "type": "event"
    },
    {
      "anonymous": false,
      "inputs": [
        {
          "indexed": true,
          "internalType": "bytes32",
          "name": "role",
          "type": "bytes32"
        },
        {
          "indexed": true,
          "internalType": "address",
          "name": "account",
          "type": "address"
        },
        {
          "indexed": true,
          "internalType": "address",
          "name": "sender",
          "type": "address"
        }
      ],
      "name": "RoleGranted",
      "type": "event"
    },
    {
      "anonymous": false,
      "inputs": [
        {
          "indexed": true,
          "internalType": "bytes32",
          "name": "role",
          "type": "bytes32"
        },
        {
          "indexed": true,
          "internalType": "address",
          "name": "account",
          "type": "address"
        },
        {
          "indexed": true,
          "internalType": "address",
          "name": "sender",
          "type": "address"
        }
      ],
      "name": "RoleRevoked",
      "type": "event"
    },
    {
      "anonymous": false,
      "inputs": [
        {
          "indexed": true,
          "internalType": "address",
          "name": "from",
          "type": "address"
        },
        {
          "indexed": true,
          "internalType": "address",
          "name": "to",
          "type": "address"
        },
        {
          "indexed": true,
          "internalType": "uint256",
          "name": "tokenId",
          "type": "uint256"
        }
      ],
      "name": "Transfer",
      "type": "event"
    },
    {
      "anonymous": false,
      "inputs": [
        {
          "indexed": false,
          "internalType": "address",
          "name": "account",
          "type": "address"
        }
      ],
      "name": "Unpaused",
      "type": "event"
    },
    {
      "inputs": [],
      "name": "ADMIN_ROLE",
      "outputs": [
        {
          "internalType": "bytes32",
          "name": "",
          "type": "bytes32"
        }
      ],
      "stateMutability": "view",
      "type": "function"
    },
    {
      "inputs": [],
      "name": "DEFAULT_ADMIN_ROLE",
      "outputs": [
        {
          "internalType": "bytes32",
          "name": "",
          "type": "bytes32"
        }
      ],
      "stateMutability": "view",
      "type": "function"
    },
    {
      "inputs": [],
      "name": "MINTER_ROLE",
      "outputs": [
        {
          "internalType": "bytes32",
          "name": "",
          "type": "bytes32"
        }
      ],
      "stateMutability": "view",
      "type": "function"
    },
    {
      "inputs": [],
      "name": "PAUSER_ROLE",
      "outputs": [
        {
          "internalType": "bytes32",
          "name": "",
          "type": "bytes32"
        }
      ],
      "stateMutability": "view",
      "type": "function"
    },
    {
      "inputs": [
        {
          "internalType": "address",
          "name": "to",
          "type": "address"
        },
        {
          "internalType": "uint256",
          "name": "tokenId",
          "type": "uint256"
        }
      ],
      "name": "approve",
      "outputs": [],
      "stateMutability": "nonpayable",
      "type": "function"
    },
    {
      "inputs": [
        {
          "internalType": "address",
          "name": "owner",
          "type": "address"
        }
      ],
      "name": "balanceOf",
      "outputs": [
        {
          "internalType": "uint256",
          "name": "",
          "type": "uint256"
        }
      ],
      "stateMutability": "view",
      "type": "function"
    },
    {
      "inputs": [
        {
          "internalType": "uint256",
          "name": "tokenId",
          "type": "uint256"
        }
      ],
      "name": "burn",
      "outputs": [],
      "stateMutability": "nonpayable",
      "type": "function"
    },
    {
      "inputs": [],
      "name": "contractOwner",
      "outputs": [
        {
          "internalType": "address",
          "name": "",
          "type": "address"
        }
      ],
      "stateMutability": "view",
      "type": "function"
    },
    {
      "inputs": [
        {
          "internalType": "uint256",
          "name": "tokenId",
          "type": "uint256"
        }
      ],
      "name": "getApproved",
      "outputs": [
        {
          "internalType": "address",
          "name": "",
          "type": "address"
        }
      ],
      "stateMutability": "view",
      "type": "function"
    },
    {
      "inputs": [
        {
          "internalType": "bytes32",
          "name": "role",
          "type": "bytes32"
        }
      ],
      "name": "getRoleAdmin",
      "outputs": [
        {
          "internalType": "bytes32",
          "name": "",
          "type": "bytes32"
        }
      ],
      "stateMutability": "view",
      "type": "function"
    },
    {
      "inputs": [],
      "name": "getTokenCount",
      "outputs": [
        {
          "internalType": "uint256",
          "name": "",
          "type": "uint256"
        }
      ],
      "stateMutability": "view",
      "type": "function"
    },
    {
      "inputs": [
        {
          "internalType": "bytes32",
          "name": "role",
          "type": "bytes32"
        },
        {
          "internalType": "address",
          "name": "account",
          "type": "address"
        }
      ],
      "name": "grantRole",
      "outputs": [],
      "stateMutability": "nonpayable",
      "type": "function"
    },
    {
      "inputs": [
        {
          "internalType": "bytes32",
          "name": "role",
          "type": "bytes32"
        },
        {
          "internalType": "address",
          "name": "account",
          "type": "address"
        }
      ],
      "name": "hasRole",
      "outputs": [
        {
          "internalType": "bool",
          "name": "",
          "type": "bool"
        }
      ],
      "stateMutability": "view",
      "type": "function"
    },
    {
      "inputs": [
        {
          "internalType": "address",
          "name": "owner",
          "type": "address"
        },
        {
          "internalType": "address",
          "name": "operator",
          "type": "address"
        }
      ],
      "name": "isApprovedForAll",
      "outputs": [
        {
          "internalType": "bool",
          "name": "",
          "type": "bool"
        }
      ],
      "stateMutability": "view",
      "type": "function"
    },
    {
      "inputs": [
        {
          "internalType": "string",
          "name": "uri",
          "type": "string"
        }
      ],
      "name": "isContentOwned",
      "outputs": [
        {
          "internalType": "bool",
          "name": "",
          "type": "bool"
        }
      ],
      "stateMutability": "view",
      "type": "function"
    },
    {
      "inputs": [],
      "name": "name",
      "outputs": [
        {
          "internalType": "string",
          "name": "",
          "type": "string"
        }
      ],
      "stateMutability": "view",
      "type": "function"
    },
    {
      "inputs": [],
      "name": "owner",
      "outputs": [
        {
          "internalType": "address",
          "name": "",
          "type": "address"
        }
      ],
      "stateMutability": "view",
      "type": "function"
    },
    {
      "inputs": [
        {
          "internalType": "uint256",
          "name": "tokenId",
          "type": "uint256"
        }
      ],
      "name": "ownerOf",
      "outputs": [
        {
          "internalType": "address",
          "name": "",
          "type": "address"
        }
      ],
      "stateMutability": "view",
      "type": "function"
    },
    {
      "inputs": [],
      "name": "pause",
      "outputs": [],
      "stateMutability": "nonpayable",
      "type": "function"
    },
    {
      "inputs": [],
      "name": "paused",
      "outputs": [
        {
          "internalType": "bool",
          "name": "",
          "type": "bool"
        }
      ],
      "stateMutability": "view",
      "type": "function"
    },
    {
      "inputs": [],
      "name": "renounceOwnership",
      "outputs": [],
      "stateMutability": "nonpayable",
      "type": "function"
    },
    {
      "inputs": [
        {
          "internalType": "bytes32",
          "name": "role",
          "type": "bytes32"
        },
        {
          "internalType": "address",
          "name": "account",
          "type": "address"
        }
      ],
      "name": "renounceRole",
      "outputs": [],
      "stateMutability": "nonpayable",
      "type": "function"
    },
    {
      "inputs": [
        {
          "internalType": "bytes32",
          "name": "role",
          "type": "bytes32"
        },
        {
          "internalType": "address",
          "name": "account",
          "type": "address"
        }
      ],
      "name": "revokeRole",
      "outputs": [],
      "stateMutability": "nonpayable",
      "type": "function"
    },
    {
      "inputs": [
        {
          "internalType": "address",
          "name": "to",
          "type": "address"
        },
        {
          "internalType": "string",
          "name": "uri",
          "type": "string"
        }
      ],
      "name": "safeMint",
      "outputs": [],
      "stateMutability": "payable",
      "type": "function"
    },
    {
      "inputs": [
        {
          "internalType": "address",
          "name": "from",
          "type": "address"
        },
        {
          "internalType": "address",
          "name": "to",
          "type": "address"
        },
        {
          "internalType": "uint256",
          "name": "tokenId",
          "type": "uint256"
        }
      ],
      "name": "safeTransferFrom",
      "outputs": [],
      "stateMutability": "nonpayable",
      "type": "function"
    },
    {
      "inputs": [
        {
          "internalType": "address",
          "name": "from",
          "type": "address"
        },
        {
          "internalType": "address",
          "name": "to",
          "type": "address"
        },
        {
          "internalType": "uint256",
          "name": "tokenId",
          "type": "uint256"
        },
        {
          "internalType": "bytes",
          "name": "_data",
          "type": "bytes"
        }
      ],
      "name": "safeTransferFrom",
      "outputs": [],
      "stateMutability": "nonpayable",
      "type": "function"
    },
    {
      "inputs": [
        {
          "internalType": "address",
          "name": "operator",
          "type": "address"
        },
        {
          "internalType": "bool",
          "name": "approved",
          "type": "bool"
        }
      ],
      "name": "setApprovalForAll",
      "outputs": [],
      "stateMutability": "nonpayable",
      "type": "function"
    },
    {
      "inputs": [
        {
          "internalType": "bytes4",
          "name": "interfaceId",
          "type": "bytes4"
        }
      ],
      "name": "supportsInterface",
      "outputs": [
        {
          "internalType": "bool",
          "name": "",
          "type": "bool"
        }
      ],
      "stateMutability": "view",
      "type": "function"
    },
    {
      "inputs": [],
      "name": "symbol",
      "outputs": [
        {
          "internalType": "string",
          "name": "",
          "type": "string"
        }
      ],
      "stateMutability": "view",
      "type": "function"
    },
    {
      "inputs": [
        {
          "internalType": "uint256",
          "name": "tokenId",
          "type": "uint256"
        }
      ],
      "name": "tokenURI",
      "outputs": [
        {
          "internalType": "string",
          "name": "",
          "type": "string"
        }
      ],
      "stateMutability": "view",
      "type": "function"
    },
    {
      "inputs": [
        {
          "internalType": "address",
          "name": "from",
          "type": "address"
        },
        {
          "internalType": "address",
          "name": "to",
          "type": "address"
        },
        {
          "internalType": "uint256",
          "name": "tokenId",
          "type": "uint256"
        }
      ],
      "name": "transferFrom",
      "outputs": [],
      "stateMutability": "nonpayable",
      "type": "function"
    },
    {
      "inputs": [
        {
          "internalType": "address",
          "name": "newOwner",
          "type": "address"
        }
      ],
      "name": "transferOwnership",
      "outputs": [],
      "stateMutability": "nonpayable",
      "type": "function"
    },
    {
      "inputs": [],
      "name": "unpause",
      "outputs": [],
      "stateMutability": "nonpayable",
      "type": "function"
    }
  ],
  "bytecode": "0x60806040523480156200001157600080fd5b506040518060400160405280600381526020017f41706500000000000000000000000000000000000000000000000000000000008152506040518060400160405280600381526020017f4150450000000000000000000000000000000000000000000000000000000000815250816000908051906020019062000096929190620003f5565b508060019080519060200190620000af929190620003f5565b505050620000d2620000c6620001ca60201b60201c565b620001d260201b60201c565b6000600960006101000a81548160ff0219169083151502179055506200011f7f65d7a28e3265b37a6474929f336521b332c1681b933f6cb9f3376673440d862a336200029860201b60201c565b620001517fa49807205ce4d355092ef5a8a18f56e8913cf4a201fbe287825b095693c21775336200029860201b60201c565b620001837f9f2df0fed2c77648de5860a4cc508cd0818c85b8b8a1ab4ceeef8d981c8956a6336200029860201b60201c565b33600b60006101000a81548173ffffffffffffffffffffffffffffffffffffffff021916908373ffffffffffffffffffffffffffffffffffffffff1602179055506200050a565b600033905090565b6000600760009054906101000a900473ffffffffffffffffffffffffffffffffffffffff16905081600760006101000a81548173ffffffffffffffffffffffffffffffffffffffff021916908373ffffffffffffffffffffffffffffffffffffffff1602179055508173ffffffffffffffffffffffffffffffffffffffff168173ffffffffffffffffffffffffffffffffffffffff167f8be0079c531659141344cd1fd0a4f28419497f9722a3daafe3b4186f6b6457e060405160405180910390a35050565b620002aa82826200038a60201b60201c565b620003865760016008600084815260200190815260200160002060000160008373ffffffffffffffffffffffffffffffffffffffff1673ffffffffffffffffffffffffffffffffffffffff16815260200190815260200160002060006101000a81548160ff0219169083151502179055506200032b620001ca60201b60201c565b73ffffffffffffffffffffffffffffffffffffffff168173ffffffffffffffffffffffffffffffffffffffff16837f2f8788117e7eff1d82e926ec794901d17c78024a50270940304540a733656f0d60405160405180910390a45b5050565b60006008600084815260200190815260200160002060000160008373ffffffffffffffffffffffffffffffffffffffff1673ffffffffffffffffffffffffffffffffffffffff16815260200190815260200160002060009054906101000a900460ff16905092915050565b8280546200040390620004d4565b90600052602060002090601f01602090048101928262000427576000855562000473565b82601f106200044257805160ff191683800117855562000473565b8280016001018555821562000473579182015b828111156200047257825182559160200191906001019062000455565b5b50905062000482919062000486565b5090565b5b80821115620004a157600081600090555060010162000487565b5090565b7f4e487b7100000000000000000000000000000000000000000000000000000000600052602260045260246000fd5b60006002820490506001821680620004ed57607f821691505b60208210811415620005045762000503620004a5565b5b50919050565b6146b8806200051a6000396000f3fe6080604052600436106101ee5760003560e01c806378a895671161010d578063b88d4fde116100a0578063d53913931161006f578063d5391393146106dc578063d547741f14610707578063e63ab1e914610730578063e985e9c51461075b578063f2fde38b14610798576101ee565b8063b88d4fde1461062f578063c87b56dd14610658578063ce606ee014610695578063d204c45e146106c0576101ee565b806395d89b41116100dc57806395d89b41146105735780639f1cabc61461059e578063a217fddf146105db578063a22cb46514610606576101ee565b806378a89567146104c95780638456cb59146104f45780638da5cb5b1461050b57806391d1485414610536576101ee565b80633f4ba83a116101855780636352211e116101545780636352211e1461040d57806370a082311461044a578063715018a61461048757806375b238fc1461049e576101ee565b80633f4ba83a1461037957806342842e0e1461039057806342966c68146103b95780635c975abb146103e2576101ee565b806323b872dd116101c157806323b872dd146102c1578063248a9ca3146102ea5780632f2ff15d1461032757806336568abe14610350576101ee565b806301ffc9a7146101f357806306fdde0314610230578063081812fc1461025b578063095ea7b314610298575b600080fd5b3480156101ff57600080fd5b5061021a60048036038101906102159190612d59565b6107c1565b6040516102279190612da1565b60405180910390f35b34801561023c57600080fd5b506102456107d3565b6040516102529190612e55565b60405180910390f35b34801561026757600080fd5b50610282600480360381019061027d9190612ead565b610865565b60405161028f9190612f1b565b60405180910390f35b3480156102a457600080fd5b506102bf60048036038101906102ba9190612f62565b6108ea565b005b3480156102cd57600080fd5b506102e860048036038101906102e39190612fa2565b610a02565b005b3480156102f657600080fd5b50610311600480360381019061030c919061302b565b610a62565b60405161031e9190613067565b60405180910390f35b34801561033357600080fd5b5061034e60048036038101906103499190613082565b610a82565b005b34801561035c57600080fd5b5061037760048036038101906103729190613082565b610aab565b005b34801561038557600080fd5b5061038e610b2e565b005b34801561039c57600080fd5b506103b760048036038101906103b29190612fa2565b610b6b565b005b3480156103c557600080fd5b506103e060048036038101906103db9190612ead565b610b8b565b005b3480156103ee57600080fd5b506103f7610be7565b6040516104049190612da1565b60405180910390f35b34801561041957600080fd5b50610434600480360381019061042f9190612ead565b610bfe565b6040516104419190612f1b565b60405180910390f35b34801561045657600080fd5b50610471600480360381019061046c91906130c2565b610cb0565b60405161047e91906130fe565b60405180910390f35b34801561049357600080fd5b5061049c610d68565b005b3480156104aa57600080fd5b506104b3610df0565b6040516104c09190613067565b60405180910390f35b3480156104d557600080fd5b506104de610e14565b6040516104eb91906130fe565b60405180910390f35b34801561050057600080fd5b50610509610e25565b005b34801561051757600080fd5b50610520610e62565b60405161052d9190612f1b565b60405180910390f35b34801561054257600080fd5b5061055d60048036038101906105589190613082565b610e8c565b60405161056a9190612da1565b60405180910390f35b34801561057f57600080fd5b50610588610ef7565b6040516105959190612e55565b60405180910390f35b3480156105aa57600080fd5b506105c560048036038101906105c0919061324e565b610f89565b6040516105d29190612da1565b60405180910390f35b3480156105e757600080fd5b506105f0610fc4565b6040516105fd9190613067565b60405180910390f35b34801561061257600080fd5b5061062d600480360381019061062891906132c3565b610fcb565b005b34801561063b57600080fd5b50610656600480360381019061065191906133a4565b610fe1565b005b34801561066457600080fd5b5061067f600480360381019061067a9190612ead565b611043565b60405161068c9190612e55565b60405180910390f35b3480156106a157600080fd5b506106aa611055565b6040516106b79190612f1b565b60405180910390f35b6106da60048036038101906106d59190613427565b61107b565b005b3480156106e857600080fd5b506106f16111d3565b6040516106fe9190613067565b60405180910390f35b34801561071357600080fd5b5061072e60048036038101906107299190613082565b6111f7565b005b34801561073c57600080fd5b50610745611220565b6040516107529190613067565b60405180910390f35b34801561076757600080fd5b50610782600480360381019061077d9190613483565b611244565b60405161078f9190612da1565b60405180910390f35b3480156107a457600080fd5b506107bf60048036038101906107ba91906130c2565b6112d8565b005b60006107cc826113d0565b9050919050565b6060600080546107e2906134f2565b80601f016020809104026020016040519081016040528092919081815260200182805461080e906134f2565b801561085b5780601f106108305761010080835404028352916020019161085b565b820191906000526020600020905b81548152906001019060200180831161083e57829003601f168201915b5050505050905090565b60006108708261144a565b6108af576040517f08c379a00000000000000000000000000000000000000000000000000000000081526004016108a690613596565b60405180910390fd5b6004600083815260200190815260200160002060009054906101000a900473ffffffffffffffffffffffffffffffffffffffff169050919050565b60006108f582610bfe565b90508073ffffffffffffffffffffffffffffffffffffffff168373ffffffffffffffffffffffffffffffffffffffff161415610966576040517f08c379a000000000000000000000000000000000000000000000000000000000815260040161095d90613628565b60405180910390fd5b8073ffffffffffffffffffffffffffffffffffffffff166109856114b6565b73ffffffffffffffffffffffffffffffffffffffff1614806109b457506109b3816109ae6114b6565b611244565b5b6109f3576040517f08c379a00000000000000000000000000000000000000000000000000000000081526004016109ea906136ba565b60405180910390fd5b6109fd83836114be565b505050565b610a13610a0d6114b6565b82611577565b610a52576040517f08c379a0000000000000000000000000000000000000000000000000000000008152600401610a499061374c565b60405180910390fd5b610a5d838383611655565b505050565b600060086000838152602001908152602001600020600101549050919050565b610a8b82610a62565b610a9c81610a976114b6565b6118bc565b610aa68383611959565b505050565b610ab36114b6565b73ffffffffffffffffffffffffffffffffffffffff168173ffffffffffffffffffffffffffffffffffffffff1614610b20576040517f08c379a0000000000000000000000000000000000000000000000000000000008152600401610b17906137de565b60405180910390fd5b610b2a8282611a3a565b5050565b7f65d7a28e3265b37a6474929f336521b332c1681b933f6cb9f3376673440d862a610b6081610b5b6114b6565b6118bc565b610b68611b1c565b50565b610b8683838360405180602001604052806000815250610fe1565b505050565b610b9c610b966114b6565b82611577565b610bdb576040517f08c379a0000000000000000000000000000000000000000000000000000000008152600401610bd290613870565b60405180910390fd5b610be481611bbe565b50565b6000600960009054906101000a900460ff16905090565b6000806002600084815260200190815260200160002060009054906101000a900473ffffffffffffffffffffffffffffffffffffffff169050600073ffffffffffffffffffffffffffffffffffffffff168173ffffffffffffffffffffffffffffffffffffffff161415610ca7576040517f08c379a0000000000000000000000000000000000000000000000000000000008152600401610c9e90613902565b60405180910390fd5b80915050919050565b60008073ffffffffffffffffffffffffffffffffffffffff168273ffffffffffffffffffffffffffffffffffffffff161415610d21576040517f08c379a0000000000000000000000000000000000000000000000000000000008152600401610d1890613994565b60405180910390fd5b600360008373ffffffffffffffffffffffffffffffffffffffff1673ffffffffffffffffffffffffffffffffffffffff168152602001908152602001600020549050919050565b610d706114b6565b73ffffffffffffffffffffffffffffffffffffffff16610d8e610e62565b73ffffffffffffffffffffffffffffffffffffffff1614610de4576040517f08c379a0000000000000000000000000000000000000000000000000000000008152600401610ddb90613a00565b60405180910390fd5b610dee6000611bca565b565b7fa49807205ce4d355092ef5a8a18f56e8913cf4a201fbe287825b095693c2177581565b6000610e20600a611c90565b905090565b7f65d7a28e3265b37a6474929f336521b332c1681b933f6cb9f3376673440d862a610e5781610e526114b6565b6118bc565b610e5f611c9e565b50565b6000600760009054906101000a900473ffffffffffffffffffffffffffffffffffffffff16905090565b60006008600084815260200190815260200160002060000160008373ffffffffffffffffffffffffffffffffffffffff1673ffffffffffffffffffffffffffffffffffffffff16815260200190815260200160002060009054906101000a900460ff16905092915050565b606060018054610f06906134f2565b80601f0160208091040260200160405190810160405280929190818152602001828054610f32906134f2565b8015610f7f5780601f10610f5457610100808354040283529160200191610f7f565b820191906000526020600020905b815481529060010190602001808311610f6257829003601f168201915b5050505050905090565b60006001600c83604051610f9d9190613a5c565b908152602001604051809103902060009054906101000a900460ff1660ff16149050919050565b6000801b81565b610fdd610fd66114b6565b8383611d41565b5050565b610ff2610fec6114b6565b83611577565b611031576040517f08c379a00000000000000000000000000000000000000000000000000000000081526004016110289061374c565b60405180910390fd5b61103d84848484611eae565b50505050565b606061104e82611f0a565b9050919050565b600b60009054906101000a900473ffffffffffffffffffffffffffffffffffffffff1681565b7f9f2df0fed2c77648de5860a4cc508cd0818c85b8b8a1ab4ceeef8d981c8956a66110ad816110a86114b6565b6118bc565b6001600c836040516110bf9190613a5c565b908152602001604051809103902060009054906101000a900460ff1660ff16141561111f576040517f08c379a000000000000000000000000000000000000000000000000000000000815260040161111690613abf565b60405180910390fd5b66b1a2bc2ec50000341015611169576040517f08c379a000000000000000000000000000000000000000000000000000000000815260040161116090613b2b565b60405180910390fd5b6000611175600a611c90565b9050611181600a61205c565b6001600c846040516111939190613a5c565b908152602001604051809103902060006101000a81548160ff021916908360ff1602179055506111c38482612072565b6111cd818461224c565b50505050565b7f9f2df0fed2c77648de5860a4cc508cd0818c85b8b8a1ab4ceeef8d981c8956a681565b61120082610a62565b6112118161120c6114b6565b6118bc565b61121b8383611a3a565b505050565b7f65d7a28e3265b37a6474929f336521b332c1681b933f6cb9f3376673440d862a81565b6000600560008473ffffffffffffffffffffffffffffffffffffffff1673ffffffffffffffffffffffffffffffffffffffff16815260200190815260200160002060008373ffffffffffffffffffffffffffffffffffffffff1673ffffffffffffffffffffffffffffffffffffffff16815260200190815260200160002060009054906101000a900460ff16905092915050565b6112e06114b6565b73ffffffffffffffffffffffffffffffffffffffff166112fe610e62565b73ffffffffffffffffffffffffffffffffffffffff1614611354576040517f08c379a000000000000000000000000000000000000000000000000000000000815260040161134b90613a00565b60405180910390fd5b600073ffffffffffffffffffffffffffffffffffffffff168173ffffffffffffffffffffffffffffffffffffffff1614156113c4576040517f08c379a00000000000000000000000000000000000000000000000000000000081526004016113bb90613bbd565b60405180910390fd5b6113cd81611bca565b50565b60007f7965db0b000000000000000000000000000000000000000000000000000000007bffffffffffffffffffffffffffffffffffffffffffffffffffffffff1916827bffffffffffffffffffffffffffffffffffffffffffffffffffffffff191614806114435750611442826122c0565b5b9050919050565b60008073ffffffffffffffffffffffffffffffffffffffff166002600084815260200190815260200160002060009054906101000a900473ffffffffffffffffffffffffffffffffffffffff1673ffffffffffffffffffffffffffffffffffffffff1614159050919050565b600033905090565b816004600083815260200190815260200160002060006101000a81548173ffffffffffffffffffffffffffffffffffffffff021916908373ffffffffffffffffffffffffffffffffffffffff160217905550808273ffffffffffffffffffffffffffffffffffffffff1661153183610bfe565b73ffffffffffffffffffffffffffffffffffffffff167f8c5be1e5ebec7d5bd14f71427d1e84f3dd0314c0f7b2291e5b200ac8c7c3b92560405160405180910390a45050565b60006115828261144a565b6115c1576040517f08c379a00000000000000000000000000000000000000000000000000000000081526004016115b890613c4f565b60405180910390fd5b60006115cc83610bfe565b90508073ffffffffffffffffffffffffffffffffffffffff168473ffffffffffffffffffffffffffffffffffffffff16148061163b57508373ffffffffffffffffffffffffffffffffffffffff1661162384610865565b73ffffffffffffffffffffffffffffffffffffffff16145b8061164c575061164b8185611244565b5b91505092915050565b8273ffffffffffffffffffffffffffffffffffffffff1661167582610bfe565b73ffffffffffffffffffffffffffffffffffffffff16146116cb576040517f08c379a00000000000000000000000000000000000000000000000000000000081526004016116c290613ce1565b60405180910390fd5b600073ffffffffffffffffffffffffffffffffffffffff168273ffffffffffffffffffffffffffffffffffffffff16141561173b576040517f08c379a000000000000000000000000000000000000000000000000000000000815260040161173290613d73565b60405180910390fd5b6117468383836123a2565b6117516000826114be565b6001600360008573ffffffffffffffffffffffffffffffffffffffff1673ffffffffffffffffffffffffffffffffffffffff16815260200190815260200160002060008282546117a19190613dc2565b925050819055506001600360008473ffffffffffffffffffffffffffffffffffffffff1673ffffffffffffffffffffffffffffffffffffffff16815260200190815260200160002060008282546117f89190613df6565b92505081905550816002600083815260200190815260200160002060006101000a81548173ffffffffffffffffffffffffffffffffffffffff021916908373ffffffffffffffffffffffffffffffffffffffff160217905550808273ffffffffffffffffffffffffffffffffffffffff168473ffffffffffffffffffffffffffffffffffffffff167fddf252ad1be2c89b69c2b068fc378daa952ba7f163c4a11628f55a4df523b3ef60405160405180910390a46118b78383836123fa565b505050565b6118c68282610e8c565b611955576118eb8173ffffffffffffffffffffffffffffffffffffffff1660146123ff565b6118f98360001c60206123ff565b60405160200161190a929190613ee4565b6040516020818303038152906040526040517f08c379a000000000000000000000000000000000000000000000000000000000815260040161194c9190612e55565b60405180910390fd5b5050565b6119638282610e8c565b611a365760016008600084815260200190815260200160002060000160008373ffffffffffffffffffffffffffffffffffffffff1673ffffffffffffffffffffffffffffffffffffffff16815260200190815260200160002060006101000a81548160ff0219169083151502179055506119db6114b6565b73ffffffffffffffffffffffffffffffffffffffff168173ffffffffffffffffffffffffffffffffffffffff16837f2f8788117e7eff1d82e926ec794901d17c78024a50270940304540a733656f0d60405160405180910390a45b5050565b611a448282610e8c565b15611b185760006008600084815260200190815260200160002060000160008373ffffffffffffffffffffffffffffffffffffffff1673ffffffffffffffffffffffffffffffffffffffff16815260200190815260200160002060006101000a81548160ff021916908315150217905550611abd6114b6565b73ffffffffffffffffffffffffffffffffffffffff168173ffffffffffffffffffffffffffffffffffffffff16837ff6391f5c32d9c69d2a47ea670b442974b53935d1edc7fd64eb21e047a839171b60405160405180910390a45b5050565b611b24610be7565b611b63576040517f08c379a0000000000000000000000000000000000000000000000000000000008152600401611b5a90613f6a565b60405180910390fd5b6000600960006101000a81548160ff0219169083151502179055507f5db9ee0a495bf2e6ff9c91a7834c1ba4fdd244a5e8aa4e537bd38aeae4b073aa611ba76114b6565b604051611bb49190612f1b565b60405180910390a1565b611bc78161263b565b50565b6000600760009054906101000a900473ffffffffffffffffffffffffffffffffffffffff16905081600760006101000a81548173ffffffffffffffffffffffffffffffffffffffff021916908373ffffffffffffffffffffffffffffffffffffffff1602179055508173ffffffffffffffffffffffffffffffffffffffff168173ffffffffffffffffffffffffffffffffffffffff167f8be0079c531659141344cd1fd0a4f28419497f9722a3daafe3b4186f6b6457e060405160405180910390a35050565b600081600001549050919050565b611ca6610be7565b15611ce6576040517f08c379a0000000000000000000000000000000000000000000000000000000008152600401611cdd90613fd6565b60405180910390fd5b6001600960006101000a81548160ff0219169083151502179055507f62e78cea01bee320cd4e420270b5ea74000d11b0c9f74754ebdbfc544b05a258611d2a6114b6565b604051611d379190612f1b565b60405180910390a1565b8173ffffffffffffffffffffffffffffffffffffffff168373ffffffffffffffffffffffffffffffffffffffff161415611db0576040517f08c379a0000000000000000000000000000000000000000000000000000000008152600401611da790614042565b60405180910390fd5b80600560008573ffffffffffffffffffffffffffffffffffffffff1673ffffffffffffffffffffffffffffffffffffffff16815260200190815260200160002060008473ffffffffffffffffffffffffffffffffffffffff1673ffffffffffffffffffffffffffffffffffffffff16815260200190815260200160002060006101000a81548160ff0219169083151502179055508173ffffffffffffffffffffffffffffffffffffffff168373ffffffffffffffffffffffffffffffffffffffff167f17307eab39ab6107e8899845ad3d59bd9653f200f220920489ca2b5937696c3183604051611ea19190612da1565b60405180910390a3505050565b611eb9848484611655565b611ec58484848461268e565b611f04576040517f08c379a0000000000000000000000000000000000000000000000000000000008152600401611efb906140d4565b60405180910390fd5b50505050565b6060611f158261144a565b611f54576040517f08c379a0000000000000000000000000000000000000000000000000000000008152600401611f4b90614166565b60405180910390fd5b6000600660008481526020019081526020016000208054611f74906134f2565b80601f0160208091040260200160405190810160405280929190818152602001828054611fa0906134f2565b8015611fed5780601f10611fc257610100808354040283529160200191611fed565b820191906000526020600020905b815481529060010190602001808311611fd057829003601f168201915b505050505090506000611ffe612816565b9050600081511415612014578192505050612057565b600082511115612049578082604051602001612031929190614186565b60405160208183030381529060405292505050612057565b61205284612853565b925050505b919050565b6001816000016000828254019250508190555050565b600073ffffffffffffffffffffffffffffffffffffffff168273ffffffffffffffffffffffffffffffffffffffff1614156120e2576040517f08c379a00000000000000000000000000000000000000000000000000000000081526004016120d9906141f6565b60405180910390fd5b6120eb8161144a565b1561212b576040517f08c379a000000000000000000000000000000000000000000000000000000000815260040161212290614262565b60405180910390fd5b612137600083836123a2565b6001600360008473ffffffffffffffffffffffffffffffffffffffff1673ffffffffffffffffffffffffffffffffffffffff16815260200190815260200160002060008282546121879190613df6565b92505081905550816002600083815260200190815260200160002060006101000a81548173ffffffffffffffffffffffffffffffffffffffff021916908373ffffffffffffffffffffffffffffffffffffffff160217905550808273ffffffffffffffffffffffffffffffffffffffff16600073ffffffffffffffffffffffffffffffffffffffff167fddf252ad1be2c89b69c2b068fc378daa952ba7f163c4a11628f55a4df523b3ef60405160405180910390a4612248600083836123fa565b5050565b6122558261144a565b612294576040517f08c379a000000000000000000000000000000000000000000000000000000000815260040161228b906142f4565b60405180910390fd5b806006600084815260200190815260200160002090805190602001906122bb929190612c0a565b505050565b60007f80ac58cd000000000000000000000000000000000000000000000000000000007bffffffffffffffffffffffffffffffffffffffffffffffffffffffff1916827bffffffffffffffffffffffffffffffffffffffffffffffffffffffff1916148061238b57507f5b5e139f000000000000000000000000000000000000000000000000000000007bffffffffffffffffffffffffffffffffffffffffffffffffffffffff1916827bffffffffffffffffffffffffffffffffffffffffffffffffffffffff1916145b8061239b575061239a826128fa565b5b9050919050565b6123aa610be7565b156123ea576040517f08c379a00000000000000000000000000000000000000000000000000000000081526004016123e190613fd6565b60405180910390fd5b6123f5838383612964565b505050565b505050565b6060600060028360026124129190614314565b61241c9190613df6565b67ffffffffffffffff81111561243557612434613123565b5b6040519080825280601f01601f1916602001820160405280156124675781602001600182028036833780820191505090505b5090507f30000000000000000000000000000000000000000000000000000000000000008160008151811061249f5761249e61436e565b5b60200101907effffffffffffffffffffffffffffffffffffffffffffffffffffffffffffff1916908160001a9053507f7800000000000000000000000000000000000000000000000000000000000000816001815181106125035761250261436e565b5b60200101907effffffffffffffffffffffffffffffffffffffffffffffffffffffffffffff1916908160001a905350600060018460026125439190614314565b61254d9190613df6565b90505b60018111156125ed577f3031323334353637383961626364656600000000000000000000000000000000600f86166010811061258f5761258e61436e565b5b1a60f81b8282815181106125a6576125a561436e565b5b60200101907effffffffffffffffffffffffffffffffffffffffffffffffffffffffffffff1916908160001a905350600485901c9450806125e69061439d565b9050612550565b5060008414612631576040517f08c379a000000000000000000000000000000000000000000000000000000000815260040161262890614413565b60405180910390fd5b8091505092915050565b61264481612969565b6000600660008381526020019081526020016000208054612664906134f2565b90501461268b5760066000828152602001908152602001600020600061268a9190612c90565b5b50565b60006126af8473ffffffffffffffffffffffffffffffffffffffff16612a86565b15612809578373ffffffffffffffffffffffffffffffffffffffff1663150b7a026126d86114b6565b8786866040518563ffffffff1660e01b81526004016126fa9493929190614488565b6020604051808303816000875af192505050801561273657506040513d601f19601f8201168201806040525081019061273391906144e9565b60015b6127b9573d8060008114612766576040519150601f19603f3d011682016040523d82523d6000602084013e61276b565b606091505b506000815114156127b1576040517f08c379a00000000000000000000000000000000000000000000000000000000081526004016127a8906140d4565b60405180910390fd5b805181602001fd5b63150b7a0260e01b7bffffffffffffffffffffffffffffffffffffffffffffffffffffffff1916817bffffffffffffffffffffffffffffffffffffffffffffffffffffffff19161491505061280e565b600190505b949350505050565b60606040518060400160405280600781526020017f697066733a2f2f00000000000000000000000000000000000000000000000000815250905090565b606061285e8261144a565b61289d576040517f08c379a000000000000000000000000000000000000000000000000000000000815260040161289490614588565b60405180910390fd5b60006128a7612816565b905060008151116128c757604051806020016040528060008152506128f2565b806128d184612aa9565b6040516020016128e2929190614186565b6040516020818303038152906040525b915050919050565b60007f01ffc9a7000000000000000000000000000000000000000000000000000000007bffffffffffffffffffffffffffffffffffffffffffffffffffffffff1916827bffffffffffffffffffffffffffffffffffffffffffffffffffffffff1916149050919050565b505050565b600061297482610bfe565b9050612982816000846123a2565b61298d6000836114be565b6001600360008373ffffffffffffffffffffffffffffffffffffffff1673ffffffffffffffffffffffffffffffffffffffff16815260200190815260200160002060008282546129dd9190613dc2565b925050819055506002600083815260200190815260200160002060006101000a81549073ffffffffffffffffffffffffffffffffffffffff021916905581600073ffffffffffffffffffffffffffffffffffffffff168273ffffffffffffffffffffffffffffffffffffffff167fddf252ad1be2c89b69c2b068fc378daa952ba7f163c4a11628f55a4df523b3ef60405160405180910390a4612a82816000846123fa565b5050565b6000808273ffffffffffffffffffffffffffffffffffffffff163b119050919050565b60606000821415612af1576040518060400160405280600181526020017f30000000000000000000000000000000000000000000000000000000000000008152509050612c05565b600082905060005b60008214612b23578080612b0c906145a8565b915050600a82612b1c9190614620565b9150612af9565b60008167ffffffffffffffff811115612b3f57612b3e613123565b5b6040519080825280601f01601f191660200182016040528015612b715781602001600182028036833780820191505090505b5090505b60008514612bfe57600182612b8a9190613dc2565b9150600a85612b999190614651565b6030612ba59190613df6565b60f81b818381518110612bbb57612bba61436e565b5b60200101907effffffffffffffffffffffffffffffffffffffffffffffffffffffffffffff1916908160001a905350600a85612bf79190614620565b9450612b75565b8093505050505b919050565b828054612c16906134f2565b90600052602060002090601f016020900481019282612c385760008555612c7f565b82601f10612c5157805160ff1916838001178555612c7f565b82800160010185558215612c7f579182015b82811115612c7e578251825591602001919060010190612c63565b5b509050612c8c9190612cd0565b5090565b508054612c9c906134f2565b6000825580601f10612cae5750612ccd565b601f016020900490600052602060002090810190612ccc9190612cd0565b5b50565b5b80821115612ce9576000816000905550600101612cd1565b5090565b6000604051905090565b600080fd5b600080fd5b60007fffffffff0000000000000000000000000000000000000000000000000000000082169050919050565b612d3681612d01565b8114612d4157600080fd5b50565b600081359050612d5381612d2d565b92915050565b600060208284031215612d6f57612d6e612cf7565b5b6000612d7d84828501612d44565b91505092915050565b60008115159050919050565b612d9b81612d86565b82525050565b6000602082019050612db66000830184612d92565b92915050565b600081519050919050565b600082825260208201905092915050565b60005b83811015612df6578082015181840152602081019050612ddb565b83811115612e05576000848401525b50505050565b6000601f19601f8301169050919050565b6000612e2782612dbc565b612e318185612dc7565b9350612e41818560208601612dd8565b612e4a81612e0b565b840191505092915050565b60006020820190508181036000830152612e6f8184612e1c565b905092915050565b6000819050919050565b612e8a81612e77565b8114612e9557600080fd5b50565b600081359050612ea781612e81565b92915050565b600060208284031215612ec357612ec2612cf7565b5b6000612ed184828501612e98565b91505092915050565b600073ffffffffffffffffffffffffffffffffffffffff82169050919050565b6000612f0582612eda565b9050919050565b612f1581612efa565b82525050565b6000602082019050612f306000830184612f0c565b92915050565b612f3f81612efa565b8114612f4a57600080fd5b50565b600081359050612f5c81612f36565b92915050565b60008060408385031215612f7957612f78612cf7565b5b6000612f8785828601612f4d565b9250506020612f9885828601612e98565b9150509250929050565b600080600060608486031215612fbb57612fba612cf7565b5b6000612fc986828701612f4d565b9350506020612fda86828701612f4d565b9250506040612feb86828701612e98565b9150509250925092565b6000819050919050565b61300881612ff5565b811461301357600080fd5b50565b60008135905061302581612fff565b92915050565b60006020828403121561304157613040612cf7565b5b600061304f84828501613016565b91505092915050565b61306181612ff5565b82525050565b600060208201905061307c6000830184613058565b92915050565b6000806040838503121561309957613098612cf7565b5b60006130a785828601613016565b92505060206130b885828601612f4d565b9150509250929050565b6000602082840312156130d8576130d7612cf7565b5b60006130e684828501612f4d565b91505092915050565b6130f881612e77565b82525050565b600060208201905061311360008301846130ef565b92915050565b600080fd5b600080fd5b7f4e487b7100000000000000000000000000000000000000000000000000000000600052604160045260246000fd5b61315b82612e0b565b810181811067ffffffffffffffff8211171561317a57613179613123565b5b80604052505050565b600061318d612ced565b90506131998282613152565b919050565b600067ffffffffffffffff8211156131b9576131b8613123565b5b6131c282612e0b565b9050602081019050919050565b82818337600083830152505050565b60006131f16131ec8461319e565b613183565b90508281526020810184848401111561320d5761320c61311e565b5b6132188482856131cf565b509392505050565b600082601f83011261323557613234613119565b5b81356132458482602086016131de565b91505092915050565b60006020828403121561326457613263612cf7565b5b600082013567ffffffffffffffff81111561328257613281612cfc565b5b61328e84828501613220565b91505092915050565b6132a081612d86565b81146132ab57600080fd5b50565b6000813590506132bd81613297565b92915050565b600080604083850312156132da576132d9612cf7565b5b60006132e885828601612f4d565b92505060206132f9858286016132ae565b9150509250929050565b600067ffffffffffffffff82111561331e5761331d613123565b5b61332782612e0b565b9050602081019050919050565b600061334761334284613303565b613183565b9050828152602081018484840111156133635761336261311e565b5b61336e8482856131cf565b509392505050565b600082601f83011261338b5761338a613119565b5b813561339b848260208601613334565b91505092915050565b600080600080608085870312156133be576133bd612cf7565b5b60006133cc87828801612f4d565b94505060206133dd87828801612f4d565b93505060406133ee87828801612e98565b925050606085013567ffffffffffffffff81111561340f5761340e612cfc565b5b61341b87828801613376565b91505092959194509250565b6000806040838503121561343e5761343d612cf7565b5b600061344c85828601612f4d565b925050602083013567ffffffffffffffff81111561346d5761346c612cfc565b5b61347985828601613220565b9150509250929050565b6000806040838503121561349a57613499612cf7565b5b60006134a885828601612f4d565b92505060206134b985828601612f4d565b9150509250929050565b7f4e487b7100000000000000000000000000000000000000000000000000000000600052602260045260246000fd5b6000600282049050600182168061350a57607f821691505b6020821081141561351e5761351d6134c3565b5b50919050565b7f4552433732313a20617070726f76656420717565727920666f72206e6f6e657860008201527f697374656e7420746f6b656e0000000000000000000000000000000000000000602082015250565b6000613580602c83612dc7565b915061358b82613524565b604082019050919050565b600060208201905081810360008301526135af81613573565b9050919050565b7f4552433732313a20617070726f76616c20746f2063757272656e74206f776e6560008201527f7200000000000000000000000000000000000000000000000000000000000000602082015250565b6000613612602183612dc7565b915061361d826135b6565b604082019050919050565b6000602082019050818103600083015261364181613605565b9050919050565b7f4552433732313a20617070726f76652063616c6c6572206973206e6f74206f7760008201527f6e6572206e6f7220617070726f76656420666f7220616c6c0000000000000000602082015250565b60006136a4603883612dc7565b91506136af82613648565b604082019050919050565b600060208201905081810360008301526136d381613697565b9050919050565b7f4552433732313a207472616e736665722063616c6c6572206973206e6f74206f60008201527f776e6572206e6f7220617070726f766564000000000000000000000000000000602082015250565b6000613736603183612dc7565b9150613741826136da565b604082019050919050565b6000602082019050818103600083015261376581613729565b9050919050565b7f416363657373436f6e74726f6c3a2063616e206f6e6c792072656e6f756e636560008201527f20726f6c657320666f722073656c660000000000000000000000000000000000602082015250565b60006137c8602f83612dc7565b91506137d38261376c565b604082019050919050565b600060208201905081810360008301526137f7816137bb565b9050919050565b7f4552433732314275726e61626c653a2063616c6c6572206973206e6f74206f7760008201527f6e6572206e6f7220617070726f76656400000000000000000000000000000000602082015250565b600061385a603083612dc7565b9150613865826137fe565b604082019050919050565b600060208201905081810360008301526138898161384d565b9050919050565b7f4552433732313a206f776e657220717565727920666f72206e6f6e657869737460008201527f656e7420746f6b656e0000000000000000000000000000000000000000000000602082015250565b60006138ec602983612dc7565b91506138f782613890565b604082019050919050565b6000602082019050818103600083015261391b816138df565b9050919050565b7f4552433732313a2062616c616e636520717565727920666f7220746865207a6560008201527f726f206164647265737300000000000000000000000000000000000000000000602082015250565b600061397e602a83612dc7565b915061398982613922565b604082019050919050565b600060208201905081810360008301526139ad81613971565b9050919050565b7f4f776e61626c653a2063616c6c6572206973206e6f7420746865206f776e6572600082015250565b60006139ea602083612dc7565b91506139f5826139b4565b602082019050919050565b60006020820190508181036000830152613a19816139dd565b9050919050565b600081905092915050565b6000613a3682612dbc565b613a408185613a20565b9350613a50818560208601612dd8565b80840191505092915050565b6000613a688284613a2b565b915081905092915050565b7f41706520697320616c7265616479206d696e7465640000000000000000000000600082015250565b6000613aa9601583612dc7565b9150613ab482613a73565b602082019050919050565b60006020820190508181036000830152613ad881613a9c565b9050919050565b7f496e73756666696369656e7420616d6f756e7420746f206d696e740000000000600082015250565b6000613b15601b83612dc7565b9150613b2082613adf565b602082019050919050565b60006020820190508181036000830152613b4481613b08565b9050919050565b7f4f776e61626c653a206e6577206f776e657220697320746865207a65726f206160008201527f6464726573730000000000000000000000000000000000000000000000000000602082015250565b6000613ba7602683612dc7565b9150613bb282613b4b565b604082019050919050565b60006020820190508181036000830152613bd681613b9a565b9050919050565b7f4552433732313a206f70657261746f7220717565727920666f72206e6f6e657860008201527f697374656e7420746f6b656e0000000000000000000000000000000000000000602082015250565b6000613c39602c83612dc7565b9150613c4482613bdd565b604082019050919050565b60006020820190508181036000830152613c6881613c2c565b9050919050565b7f4552433732313a207472616e736665722066726f6d20696e636f72726563742060008201527f6f776e6572000000000000000000000000000000000000000000000000000000602082015250565b6000613ccb602583612dc7565b9150613cd682613c6f565b604082019050919050565b60006020820190508181036000830152613cfa81613cbe565b9050919050565b7f4552433732313a207472616e7366657220746f20746865207a65726f2061646460008201527f7265737300000000000000000000000000000000000000000000000000000000602082015250565b6000613d5d602483612dc7565b9150613d6882613d01565b604082019050919050565b60006020820190508181036000830152613d8c81613d50565b9050919050565b7f4e487b7100000000000000000000000000000000000000000000000000000000600052601160045260246000fd5b6000613dcd82612e77565b9150613dd883612e77565b925082821015613deb57613dea613d93565b5b828203905092915050565b6000613e0182612e77565b9150613e0c83612e77565b9250827fffffffffffffffffffffffffffffffffffffffffffffffffffffffffffffffff03821115613e4157613e40613d93565b5b828201905092915050565b7f416363657373436f6e74726f6c3a206163636f756e7420000000000000000000600082015250565b6000613e82601783613a20565b9150613e8d82613e4c565b601782019050919050565b7f206973206d697373696e6720726f6c6520000000000000000000000000000000600082015250565b6000613ece601183613a20565b9150613ed982613e98565b601182019050919050565b6000613eef82613e75565b9150613efb8285613a2b565b9150613f0682613ec1565b9150613f128284613a2b565b91508190509392505050565b7f5061757361626c653a206e6f7420706175736564000000000000000000000000600082015250565b6000613f54601483612dc7565b9150613f5f82613f1e565b602082019050919050565b60006020820190508181036000830152613f8381613f47565b9050919050565b7f5061757361626c653a2070617573656400000000000000000000000000000000600082015250565b6000613fc0601083612dc7565b9150613fcb82613f8a565b602082019050919050565b60006020820190508181036000830152613fef81613fb3565b9050919050565b7f4552433732313a20617070726f766520746f2063616c6c657200000000000000600082015250565b600061402c601983612dc7565b915061403782613ff6565b602082019050919050565b6000602082019050818103600083015261405b8161401f565b9050919050565b7f4552433732313a207472616e7366657220746f206e6f6e20455243373231526560008201527f63656976657220696d706c656d656e7465720000000000000000000000000000602082015250565b60006140be603283612dc7565b91506140c982614062565b604082019050919050565b600060208201905081810360008301526140ed816140b1565b9050919050565b7f45524337323155524953746f726167653a2055524920717565727920666f722060008201527f6e6f6e6578697374656e7420746f6b656e000000000000000000000000000000602082015250565b6000614150603183612dc7565b915061415b826140f4565b604082019050919050565b6000602082019050818103600083015261417f81614143565b9050919050565b60006141928285613a2b565b915061419e8284613a2b565b91508190509392505050565b7f4552433732313a206d696e7420746f20746865207a65726f2061646472657373600082015250565b60006141e0602083612dc7565b91506141eb826141aa565b602082019050919050565b6000602082019050818103600083015261420f816141d3565b9050919050565b7f4552433732313a20746f6b656e20616c7265616479206d696e74656400000000600082015250565b600061424c601c83612dc7565b915061425782614216565b602082019050919050565b6000602082019050818103600083015261427b8161423f565b9050919050565b7f45524337323155524953746f726167653a2055524920736574206f66206e6f6e60008201527f6578697374656e7420746f6b656e000000000000000000000000000000000000602082015250565b60006142de602e83612dc7565b91506142e982614282565b604082019050919050565b6000602082019050818103600083015261430d816142d1565b9050919050565b600061431f82612e77565b915061432a83612e77565b9250817fffffffffffffffffffffffffffffffffffffffffffffffffffffffffffffffff048311821515161561436357614362613d93565b5b828202905092915050565b7f4e487b7100000000000000000000000000000000000000000000000000000000600052603260045260246000fd5b60006143a882612e77565b915060008214156143bc576143bb613d93565b5b600182039050919050565b7f537472696e67733a20686578206c656e67746820696e73756666696369656e74600082015250565b60006143fd602083612dc7565b9150614408826143c7565b602082019050919050565b6000602082019050818103600083015261442c816143f0565b9050919050565b600081519050919050565b600082825260208201905092915050565b600061445a82614433565b614464818561443e565b9350614474818560208601612dd8565b61447d81612e0b565b840191505092915050565b600060808201905061449d6000830187612f0c565b6144aa6020830186612f0c565b6144b760408301856130ef565b81810360608301526144c9818461444f565b905095945050505050565b6000815190506144e381612d2d565b92915050565b6000602082840312156144ff576144fe612cf7565b5b600061450d848285016144d4565b91505092915050565b7f4552433732314d657461646174613a2055524920717565727920666f72206e6f60008201527f6e6578697374656e7420746f6b656e0000000000000000000000000000000000602082015250565b6000614572602f83612dc7565b915061457d82614516565b604082019050919050565b600060208201905081810360008301526145a181614565565b9050919050565b60006145b382612e77565b91507fffffffffffffffffffffffffffffffffffffffffffffffffffffffffffffffff8214156145e6576145e5613d93565b5b600182019050919050565b7f4e487b7100000000000000000000000000000000000000000000000000000000600052601260045260246000fd5b600061462b82612e77565b915061463683612e77565b925082614646576146456145f1565b5b828204905092915050565b600061465c82612e77565b915061466783612e77565b925082614677576146766145f1565b5b82820690509291505056fea2646970667358221220f7a47e4adcf5d4b7bc265f5edbe54484b823709558673fdb7d8a3406f397f23564736f6c634300080a0033",
  "linkReferences": {},
  "deployedLinkReferences": {}
}